{
  "_format": "hh-sol-artifact-1",
  "contractName": "FundAllocation",
  "sourceName": "contracts/Fundtracking.sol",
  "abi": [
    {
      "anonymous": false,
      "inputs": [
        {
          "indexed": true,
          "internalType": "uint256",
          "name": "fundraiserId",
          "type": "uint256"
        },
        {
          "indexed": false,
          "internalType": "address",
          "name": "donor",
          "type": "address"
        },
        {
          "indexed": false,
          "internalType": "uint256",
          "name": "amount",
          "type": "uint256"
        }
      ],
      "name": "DonationReceived",
      "type": "event"
    },
    {
      "anonymous": false,
      "inputs": [
        {
          "indexed": true,
          "internalType": "uint256",
          "name": "fundraiserId",
          "type": "uint256"
        },
        {
          "indexed": false,
          "internalType": "uint256",
          "name": "milestoneIndex",
          "type": "uint256"
        }
      ],
      "name": "FundWithdrawalRequested",
      "type": "event"
    },
    {
      "anonymous": false,
      "inputs": [
        {
          "indexed": true,
          "internalType": "uint256",
          "name": "id",
          "type": "uint256"
        },
        {
          "indexed": false,
          "internalType": "address",
          "name": "creator",
          "type": "address"
        },
        {
          "indexed": false,
          "internalType": "string",
          "name": "title",
          "type": "string"
        },
        {
          "indexed": false,
          "internalType": "uint256",
          "name": "targetAmount",
          "type": "uint256"
        }
      ],
      "name": "FundraiserCreated",
      "type": "event"
    },
    {
      "anonymous": false,
      "inputs": [
        {
          "indexed": true,
          "internalType": "uint256",
          "name": "fundraiserId",
          "type": "uint256"
        },
        {
          "indexed": false,
          "internalType": "uint256",
          "name": "milestoneIndex",
          "type": "uint256"
        },
        {
          "indexed": false,
          "internalType": "uint256",
          "name": "amount",
          "type": "uint256"
        }
      ],
      "name": "FundsReleased",
      "type": "event"
    },
    {
      "anonymous": false,
      "inputs": [
        {
          "indexed": true,
          "internalType": "uint256",
          "name": "fundraiserId",
          "type": "uint256"
        },
        {
          "indexed": false,
          "internalType": "uint256",
          "name": "milestoneIndex",
          "type": "uint256"
        }
      ],
      "name": "MilestoneApproved",
      "type": "event"
    },
    {
      "anonymous": false,
      "inputs": [
        {
          "indexed": true,
          "internalType": "uint256",
          "name": "fundraiserId",
          "type": "uint256"
        },
        {
          "indexed": false,
          "internalType": "uint256",
          "name": "milestoneIndex",
          "type": "uint256"
        },
        {
          "indexed": false,
          "internalType": "string",
          "name": "description",
          "type": "string"
        },
        {
          "indexed": false,
          "internalType": "uint256",
          "name": "amount",
          "type": "uint256"
        },
        {
          "indexed": false,
          "internalType": "bool",
          "name": "requiresProof",
          "type": "bool"
        }
      ],
      "name": "MilestoneCreated",
      "type": "event"
    },
    {
      "anonymous": false,
      "inputs": [
        {
          "indexed": true,
          "internalType": "uint256",
          "name": "fundraiserId",
          "type": "uint256"
        },
        {
          "indexed": false,
          "internalType": "uint256",
          "name": "milestoneIndex",
          "type": "uint256"
        },
        {
          "indexed": false,
          "internalType": "address",
          "name": "validator",
          "type": "address"
        },
        {
          "indexed": false,
          "internalType": "bool",
          "name": "approved",
          "type": "bool"
        }
      ],
      "name": "MilestoneVoted",
      "type": "event"
    },
    {
      "anonymous": false,
      "inputs": [
        {
          "indexed": true,
          "internalType": "uint256",
          "name": "fundraiserId",
          "type": "uint256"
        },
        {
          "indexed": false,
          "internalType": "uint256",
          "name": "milestoneIndex",
          "type": "uint256"
        },
        {
          "indexed": false,
          "internalType": "string",
          "name": "proof",
          "type": "string"
        }
      ],
      "name": "ProofSubmitted",
      "type": "event"
    },
    {
      "anonymous": false,
      "inputs": [
        {
          "indexed": true,
          "internalType": "uint256",
          "name": "fundraiserId",
          "type": "uint256"
        },
        {
          "indexed": false,
          "internalType": "address",
          "name": "validator",
          "type": "address"
        }
      ],
      "name": "ValidatorAdded",
      "type": "event"
    },
    {
      "inputs": [
        {
          "internalType": "uint256",
          "name": "_fundraiserId",
          "type": "uint256"
        },
        {
          "internalType": "string",
          "name": "_description",
          "type": "string"
        },
        {
          "internalType": "uint256",
          "name": "_amount",
          "type": "uint256"
        },
        {
          "internalType": "bool",
          "name": "_requiresProof",
          "type": "bool"
        }
      ],
      "name": "addMilestone",
      "outputs": [],
      "stateMutability": "nonpayable",
      "type": "function"
    },
    {
      "inputs": [
        {
          "internalType": "uint256",
          "name": "_fundraiserId",
          "type": "uint256"
        },
        {
          "internalType": "address",
          "name": "_validator",
          "type": "address"
        }
      ],
      "name": "addValidator",
      "outputs": [],
      "stateMutability": "nonpayable",
      "type": "function"
    },
    {
      "inputs": [
        {
          "internalType": "string",
          "name": "_title",
          "type": "string"
        },
        {
          "internalType": "string",
          "name": "_description",
          "type": "string"
        },
        {
          "internalType": "uint256",
          "name": "_targetAmount",
          "type": "uint256"
        }
      ],
      "name": "createFundraiser",
      "outputs": [
        {
          "internalType": "uint256",
          "name": "",
          "type": "uint256"
        }
      ],
      "stateMutability": "nonpayable",
      "type": "function"
    },
    {
      "inputs": [
        {
          "internalType": "uint256",
          "name": "_fundraiserId",
          "type": "uint256"
        }
      ],
      "name": "donate",
      "outputs": [],
      "stateMutability": "payable",
      "type": "function"
    },
    {
      "inputs": [
        {
          "internalType": "uint256",
          "name": "",
          "type": "uint256"
        }
      ],
      "name": "fundraisers",
      "outputs": [
        {
          "internalType": "uint256",
          "name": "id",
          "type": "uint256"
        },
        {
          "internalType": "address",
          "name": "creator",
          "type": "address"
        },
        {
          "internalType": "string",
          "name": "title",
          "type": "string"
        },
        {
          "internalType": "string",
          "name": "description",
          "type": "string"
        },
        {
          "internalType": "uint256",
          "name": "targetAmount",
          "type": "uint256"
        },
        {
          "internalType": "uint256",
          "name": "raisedAmount",
          "type": "uint256"
        },
        {
          "internalType": "bool",
          "name": "active",
          "type": "bool"
        },
        {
          "internalType": "uint256",
          "name": "milestoneCount",
          "type": "uint256"
        },
        {
          "internalType": "uint256",
          "name": "currentMilestoneIndex",
          "type": "uint256"
        },
        {
          "internalType": "uint256",
          "name": "validatorCount",
          "type": "uint256"
        }
      ],
      "stateMutability": "view",
      "type": "function"
    },
    {
      "inputs": [
        {
          "internalType": "uint256",
          "name": "_fundraiserId",
          "type": "uint256"
        },
        {
          "internalType": "address",
          "name": "_donor",
          "type": "address"
        }
      ],
      "name": "getDonorContribution",
      "outputs": [
        {
          "internalType": "uint256",
          "name": "",
          "type": "uint256"
        }
      ],
      "stateMutability": "view",
      "type": "function"
    },
    {
      "inputs": [],
      "name": "getFundraiserCount",
      "outputs": [
        {
          "internalType": "uint256",
          "name": "",
          "type": "uint256"
        }
      ],
      "stateMutability": "view",
      "type": "function"
    },
    {
      "inputs": [
        {
          "internalType": "uint256",
          "name": "_fundraiserId",
          "type": "uint256"
        }
      ],
      "name": "getFundraiserDetails",
      "outputs": [
        {
          "internalType": "address",
          "name": "creator",
          "type": "address"
        },
        {
          "internalType": "string",
          "name": "title",
          "type": "string"
        },
        {
          "internalType": "string",
          "name": "description",
          "type": "string"
        },
        {
          "internalType": "uint256",
          "name": "targetAmount",
          "type": "uint256"
        },
        {
          "internalType": "uint256",
          "name": "raisedAmount",
          "type": "uint256"
        },
        {
          "internalType": "bool",
          "name": "active",
          "type": "bool"
        },
        {
          "internalType": "uint256",
          "name": "milestoneCount",
          "type": "uint256"
        },
        {
          "internalType": "uint256",
          "name": "currentMilestoneIndex",
          "type": "uint256"
        },
        {
          "internalType": "uint256",
          "name": "validatorCount",
          "type": "uint256"
        }
      ],
      "stateMutability": "view",
      "type": "function"
    },
    {
      "inputs": [
        {
          "internalType": "uint256",
          "name": "_fundraiserId",
          "type": "uint256"
        },
        {
          "internalType": "uint256",
          "name": "_milestoneIndex",
          "type": "uint256"
        }
      ],
      "name": "getMilestone",
      "outputs": [
        {
          "internalType": "string",
          "name": "description",
          "type": "string"
        },
        {
          "internalType": "uint256",
          "name": "amount",
          "type": "uint256"
        },
        {
          "internalType": "string",
          "name": "proof",
          "type": "string"
        },
        {
          "internalType": "bool",
          "name": "proofSubmitted",
          "type": "bool"
        },
        {
          "internalType": "bool",
          "name": "approved",
          "type": "bool"
        },
        {
          "internalType": "bool",
          "name": "fundsReleased",
          "type": "bool"
        },
        {
          "internalType": "bool",
          "name": "requiresProof",
          "type": "bool"
        },
        {
          "internalType": "uint256",
          "name": "yesVotes",
          "type": "uint256"
        },
        {
          "internalType": "uint256",
          "name": "noVotes",
          "type": "uint256"
        }
      ],
      "stateMutability": "view",
      "type": "function"
    },
    {
      "inputs": [
        {
          "internalType": "uint256",
          "name": "_fundraiserId",
          "type": "uint256"
        }
      ],
      "name": "getTotalMilestoneAmount",
      "outputs": [
        {
          "internalType": "uint256",
          "name": "",
          "type": "uint256"
        }
      ],
      "stateMutability": "view",
      "type": "function"
    },
    {
      "inputs": [
        {
          "internalType": "uint256",
          "name": "_fundraiserId",
          "type": "uint256"
        },
        {
          "internalType": "uint256",
          "name": "_milestoneIndex",
          "type": "uint256"
        },
        {
          "internalType": "address",
          "name": "_validator",
          "type": "address"
        }
      ],
      "name": "hasVoted",
      "outputs": [
        {
          "internalType": "bool",
          "name": "",
          "type": "bool"
        }
      ],
      "stateMutability": "view",
      "type": "function"
    },
    {
      "inputs": [
        {
          "internalType": "uint256",
          "name": "_fundraiserId",
          "type": "uint256"
        },
        {
          "internalType": "address",
          "name": "_validator",
          "type": "address"
        }
      ],
      "name": "isValidator",
      "outputs": [
        {
          "internalType": "bool",
          "name": "",
          "type": "bool"
        }
      ],
      "stateMutability": "view",
      "type": "function"
    },
    {
      "inputs": [
        {
          "internalType": "uint256",
          "name": "_fundraiserId",
          "type": "uint256"
        }
      ],
      "name": "releaseMilestoneFunds",
      "outputs": [],
      "stateMutability": "nonpayable",
      "type": "function"
    },
    {
      "inputs": [
        {
          "internalType": "uint256",
          "name": "_fundraiserId",
          "type": "uint256"
        }
      ],
      "name": "requestFundWithdrawal",
      "outputs": [],
      "stateMutability": "nonpayable",
      "type": "function"
    },
    {
      "inputs": [
        {
          "internalType": "uint256",
          "name": "_fundraiserId",
          "type": "uint256"
        },
        {
          "internalType": "string",
          "name": "_proof",
          "type": "string"
        }
      ],
      "name": "submitMilestoneProof",
      "outputs": [],
      "stateMutability": "nonpayable",
      "type": "function"
    },
    {
      "inputs": [
        {
          "internalType": "uint256",
          "name": "_fundraiserId",
          "type": "uint256"
        },
        {
          "internalType": "bool",
          "name": "_approved",
          "type": "bool"
        }
      ],
      "name": "validateMilestone",
      "outputs": [],
      "stateMutability": "nonpayable",
      "type": "function"
    }
  ],
  "bytecode": "0x6080806040523461001657611df1908161001c8239f35b600080fdfe6080604052600436101561001257600080fd5b60003560e01c80630d39a1d31461184e5780630e426d24146115105780631ebc1c9d1461120957806323f2a73f146111ab5780633430edd014610efe5780634b56175314610d965780638ed9895c14610ca05780639881575714610bd6578063a1be44e014610b7d578063a2e54d7514610903578063b542c34b14610731578063ba6f70311461070b578063c50870b1146102b8578063f14faf6f146101b9578063f38f72fb146100ef5763fe62b7da146100cc57600080fd5b346100ea5760003660031901126100ea576020600054604051908152f35b600080fd5b346100ea5760203660031901126100ea576004356000526001602052604060002080549060018060a01b036001820154169061012d600282016119f3565b610139600383016119f3565b91600481015492600582015460ff60068401541690610192600785015493610184600c6008880154970154976040519b8c9b610140918d5260208d01528060408d01528b0190611979565b9089820360608b0152611979565b95608088015260a0870152151560c086015260e08501526101008401526101208301520390f35b60203660031901126100ea576004356101d56000548210611a98565b341561026457806000526001602052600a60406000206101fb60ff600683015416611b7f565b6005810180549061021861020f3484611cee565b92831015611d7c565b5533600052016020526040600020610231348254611cee565b90557f0b5b4c52969ff7329ecf7ee536409fda87812b15a8622bc6e8cdeab3aee14a2660408051338152346020820152a2005b60405162461bcd60e51b815260206004820152602660248201527f446f6e6174696f6e20616d6f756e74206d75737420626520677265617465722060448201526507468616e20360d41b6064820152608490fd5b346100ea5760603660031901126100ea576004356001600160401b0381116100ea576102e8903690600401611932565b6024356001600160401b0381116100ea57610307903690600401611932565b8151156106ce5761031a81511515611c95565b6044351561067d576000549061032f82611cdf565b600055816000526001602052604060002090828255600182013360018060a01b031982541617905583516001600160401b0381116105a85761037460028401546119b9565b601f8111610636575b50806020601f82116001146105c9576000916105be575b508160011b916000199060031b1c19161760028301555b805160038301916001600160401b0382116105a8576103ca83546119b9565b601f8111610560575b5091849391602096938790601f83116001146104cd57937f29ddd37de3bb953acd135fb5ec12c7a3a99484ebb4d586be9d04c5042a48c53b959383600194600c94610485986000926104c2575b5050600019600383901b1c191690851b1790555b60443560048201556006810160ff199084828254161790556000600883015533600052600b82018a528360406000209182541617905501556040519182913383526060888401526060830190611979565b60443560408301520390a2807f7429a06e9412e469f0d64f9d222640b0af359f556b709e2913588c227851b88d83604051338152a2604051908152f35b015190508c80610420565b90601f1983169184600052896000209260005b818110610546575084600c9461048598947f29ddd37de3bb953acd135fb5ec12c7a3a99484ebb4d586be9d04c5042a48c53b9a989460019889951061052d575b505050811b019055610434565b015160001960f88460031b161c191690558c8080610520565b8284015185558a9950600190940193928b01928b016104e0565b836000526020600020601f840160051c8101916020851061059e575b601f0160051c01905b81811061059257506103d3565b60008155600101610585565b909150819061057c565b634e487b7160e01b600052604160045260246000fd5b905085015186610394565b91506002840160005260206000206000925b601f198316841061061e576001935082601f19811610610605575b5050811b0160028301556103ab565b87015160001960f88460031b161c1916905586806105f6565b878101518255602093840193600190920191016105db565b600284016000526020600020601f830160051c810160208410610676575b601f830160051c8201811061066a57505061037d565b60008155600101610654565b5080610654565b60405162461bcd60e51b8152602060048201526024808201527f54617267657420616d6f756e74206d75737420626520677265617465722074686044820152630616e20360e41b6064820152608490fd5b60405162461bcd60e51b81526020600482015260156024820152745469746c652063616e6e6f7420626520656d70747960581b6044820152606490fd5b346100ea5760203660031901126100ea576020610729600435611cfb565b604051908152f35b346100ea576020806003193601126100ea57600435906107546000548310611a98565b816000526001815261077760018060a01b03600160406000200154163314611b27565b8160005260018152604060002061079460ff600683015416611b7f565b60096008820154916107ab60078201548410611bc6565b018160005280835260ff6003604060002001546107cd828260081c1615611c07565b6107dc828260101c1615611c50565b60181c16610812575b50907f7c96de2ffc3794ac5594356f24b44a45177941582e1e03777c7abbe7131d064d91604051908152a2005b81156108b057600019820182811161089a57600052825260ff60036040600020015460101c161561084357836107e5565b60405162461bcd60e51b815260048101839052602960248201527f50726576696f7573206d696c6573746f6e652066756e6473206e6f742072656c60448201526819585cd959081e595d60ba1b6064820152608490fd5b634e487b7160e01b600052601160045260246000fd5b60405162461bcd60e51b815260048101849052602560248201527f4669727374206d696c6573746f6e6520646f65736e2774207265717569726520604482015264383937b7b360d91b6064820152608490fd5b346100ea576020806003193601126100ea576004356002549160ff8316610b395760018060ff198095161760025561093e6000548410611a98565b8260005280825260018060a01b0391610961838360406000200154163314611b27565b836000528181526040600020600681019361097f60ff865416611b7f565b60088201805495600784019161099783548910611bc6565b8760005260098501865260406000209260038401805460ff8160081c1615610afb576109c960ff8260101c1615611c50565b896005890154960195865411610ac157936000979388979388979362010000899862ff000019161790556109fd8254611cdf565b809255541115610ab5575b50549788920154165af13d15610ab0573d610a2281611917565b90610a3060405192836118f6565b81526000833d92013e5b15610a7a57916040917f24d2f6e8ac6c13d1e7610752ab0b7ce03d5043806a65d3d631ae859ad81d159b938351928352820152a260025416600255600080f35b6064906040519062461bcd60e51b82526004820152600f60248201526e151c985b9cd9995c8819985a5b1959608a1b6044820152fd5b610a3a565b8c81541690558c610a08565b60405162461bcd60e51b8152600481018a90526012602482015271496e73756666696369656e742066756e647360701b6044820152606490fd5b60405162461bcd60e51b8152600481018a90526016602482015275135a5b195cdd1bdb99481b9bdd08185c1c1c9bdd995960521b6044820152606490fd5b6064906040519062461bcd60e51b82526004820152601f60248201527f5265656e7472616e637947756172643a207265656e7472616e742063616c6c006044820152fd5b346100ea5760403660031901126100ea57600435610b996118e0565b90610ba76000548210611a98565b6000526001602052600a6040600020019060018060a01b03166000526020526020604060002054604051908152f35b346100ea5760203660031901126100ea57600435610bf76000548210611a98565b6000526001602052604060002060018060a01b036001820154166004820154600583015460ff6006850154166007850154600886015491600c87015493610c7a610c4f6003610c4860028c016119f3565b9a016119f3565b610c6c6040519a8b9a610120908c528060208d01528b0190611979565b9089820360408b0152611979565b9560608801526080870152151560a086015260c085015260e08401526101008301520390f35b346100ea5760403660031901126100ea5760043560243590610cc56000548210611a98565b806000526001602052610ce16007604060002001548310611ae0565b6000526001602052600960406000200190600052602052610d4460406000206001810154600382015490600483015460ff610d57600586015493610d306002610d29896119f3565b98016119f3565b604051988998610120808b528a0190611979565b9160208901528782036040890152611979565b9381811615156060870152818160081c1615156080870152818160101c16151560a087015260181c16151560c085015260e08401526101008301520390f35b346100ea5760403660031901126100ea57600435610db26118e0565b610dbf6000548310611a98565b816000526020906001825260018060a01b03610de681600160406000200154163314611b27565b8360005260018352604060002090610e0460ff600684015416611b7f565b600b82019216918260005280845260ff60406000205416610eb9578215610e78578291600c917f7429a06e9412e469f0d64f9d222640b0af359f556b709e2913588c227851b88d959460005284526040600020600160ff1982541617905501610e6d8154611cdf565b9055604051908152a2005b60405162461bcd60e51b8152600481018590526019602482015278496e76616c69642076616c696461746f72206164647265737360381b6044820152606490fd5b60405162461bcd60e51b815260048101859052601e60248201527f4164647265737320697320616c726561647920612076616c696461746f7200006044820152606490fd5b346100ea5760403660031901126100ea576004356024803590811515908183036100ea57610f2f6000548510611a98565b83600052600191602092808452600b60406000200133600052845260ff9283604060002054161561116d5786600052818552604060002092610f7685600686015416611b7f565b600884015494610f8b60078601548710611bc6565b856000526009850187526040600020926003840198895483808260181c16611122575b81610fc182610fcb9460081c1615611c07565b60101c1615611c50565b600685019233600052838a52604060002054166110ee57156110a9576004840180549186830180931161109557506060600494600c96948d947fab85204cc3f4a5213aaeac56baec47b9fe23ddb7ee575fe3f6d6f2b6226bf83094555b336000528b5260406000208860ff19825416179055604051908a8252338c8301526040820152a20154920154901c1061105d57005b7f939da3b627c123c81fe5aacebf925163337a0d4f8a03724640618078cad248949261010061ff0019825416179055604051908152a2005b634e487b7160e01b60009081526011600452fd5b6005840180549186830180931161109557506060600494600c96948d947fab85204cc3f4a5213aaeac56baec47b9fe23ddb7ee575fe3f6d6f2b6226bf8309455611028565b60405162461bcd60e51b8152600481018a9052600d818401526c105b1c9958591e481d9bdd1959609a1b6044820152606490fd5b81161561112f5783610fae565b60405162461bcd60e51b8152600481018b905260178185015276141c9bdbd9881b9bdd081cdd589b5a5d1d1959081e595d604a1b6044820152606490fd5b8460186064926040519262461bcd60e51b84526004840152820152774f6e6c792076616c696461746f72732063616e20766f746560401b6044820152fd5b346100ea5760403660031901126100ea576004356111c76118e0565b906111d56000548210611a98565b6000526001602052600b6040600020019060018060a01b0316600052602052602060ff604060002054166040519015158152f35b346100ea5760803660031901126100ea576001600160401b036004356024358281116100ea5761123d903690600401611932565b9160443590606435918215158093036100ea5761125d6000548510611a98565b8360005260019260209380855261128460018060a01b038260406000200154163314611b27565b856000528085526040600020936112a160ff600687015416611b7f565b6112ad88511515611c95565b83156114cb576112bc87611cfb565b600486015490810390811161089a57841161148657600785019160098354968760005201875260406000209189519081116105a8576112fb83546119b9565b601f811161143d575b5087601f82116001146113b25792866113979593836003947f0d13ce3d272f132c189a6f55a39669fbbeff70c401a92338fb44e04c5213813a9d9e976000916113a7575b5060001982871b1c191690821b1783555b82015501805463ff0000008660181b169063ff000000191617905561137e8154611cdf565b9055608060405196879687528601526080850190611979565b91604084015260608301520390a2005b90508701518f611348565b601f1982169084600052896000209160005b81811061142857509380847f0d13ce3d272f132c189a6f55a39669fbbeff70c401a92338fb44e04c5213813a9d9e97948b946003976113979b9910611410575b5050811b018355611359565b89015160001983891b60f8161c191690558f80611404565b8d830151845592850192918b01918b016113c4565b8360005288600020601f830160051c8101918a841061147c575b601f0160051c019083905b828110611470575050611304565b60008155018390611462565b9091508190611457565b60405162461bcd60e51b815260048101879052601f60248201527f416d6f756e7420657863656564732072656d61696e696e6720746172676574006044820152606490fd5b60405162461bcd60e51b815260048101879052601d60248201527f416d6f756e74206d7573742062652067726561746572207468616e20300000006044820152606490fd5b346100ea5760403660031901126100ea5760246004356001600160401b0382358181116100ea57611545903690600401611932565b926115536000548410611a98565b8260005260019160209280845261157a60018060a01b038260406000200154163314611b27565b8460005280845260406000209261159760ff600686015416611b7f565b8651156118135760096008850154946115b560078201548710611bc6565b856000520185526040600020926003840193845460ff81166117d557806115e360ff809360081c1615611c07565b6115f2828260101c1615611c50565b60181c161561178657600201918851918211611772575061161382546119b9565b601f8111611729575b5085601f821160011461169f5791817fa0369f36b2a8975ad69f1e8b8de8b56312cbcfe25149ce1e43f83d5e612f451b9899949261168f9694600091611694575b50600019600383901b1c191690831b1790555b60ff198254161790556040805194859485528401526040830190611979565b0390a2005b90508501518b61165d565b601f1982169083600052876000209160005b81811061171457509261168f969492869492827fa0369f36b2a8975ad69f1e8b8de8b56312cbcfe25149ce1e43f83d5e612f451b9c9d9894106116fb575b5050811b019055611670565b87015160001960f88460031b161c191690558b806116ef565b8b8301518455928601929189019189016116b1565b8260005286600020601f830160051c810191888410611768575b601f0160051c019084905b82811061175c57505061161c565b6000815501849061174e565b9091508190611743565b634e487b7160e01b60009081526041600452fd5b608487846040519162461bcd60e51b83526004830152808201527f54686973206d696c6573746f6e6520646f65736e2774207265717569726520706044820152633937b7b360e11b6064820152fd5b60405162461bcd60e51b81526004810189905260178186015276141c9bdbd988185b1c9958591e481cdd589b5a5d1d1959604a1b6044820152606490fd5b8460156064926040519262461bcd60e51b845260048401528201527450726f6f662063616e6e6f7420626520656d70747960581b6044820152fd5b346100ea5760603660031901126100ea576044356001600160a01b0381169060243590600435908390036100ea576118896000548210611a98565b8060005260016020526118a56007604060002001548310611ae0565b6000526001602052600960406000200190600052602052600660406000200190600052602052602060ff604060002054166040519015158152f35b602435906001600160a01b03821682036100ea57565b90601f801991011681019081106001600160401b038211176105a857604052565b6001600160401b0381116105a857601f01601f191660200190565b81601f820112156100ea5780359061194982611917565b9261195760405194856118f6565b828452602083830101116100ea57816000926020809301838601378301015290565b919082519283825260005b8481106119a5575050826000602080949584010152601f8019910116010190565b602081830181015184830182015201611984565b90600182811c921680156119e9575b60208310146119d357565b634e487b7160e01b600052602260045260246000fd5b91607f16916119c8565b90604051918260008254611a06816119b9565b90818452602094600191600181169081600014611a765750600114611a37575b505050611a35925003836118f6565b565b600090815285812095935091905b818310611a5e575050611a359350820101388080611a26565b85548884018501529485019487945091830191611a45565b92505050611a3594925060ff191682840152151560051b820101388080611a26565b15611a9f57565b60405162461bcd60e51b8152602060048201526019602482015278119d5b991c985a5cd95c88191bd95cc81b9bdd08195e1a5cdd603a1b6044820152606490fd5b15611ae757565b60405162461bcd60e51b8152602060048201526018602482015277135a5b195cdd1bdb9948191bd95cc81b9bdd08195e1a5cdd60421b6044820152606490fd5b15611b2e57565b60405162461bcd60e51b8152602060048201526024808201527f4f6e6c792063726561746f722063616e20706572666f726d20746869732061636044820152633a34b7b760e11b6064820152608490fd5b15611b8657565b60405162461bcd60e51b815260206004820152601860248201527746756e64726169736572206973206e6f742061637469766560401b6044820152606490fd5b15611bcd57565b60405162461bcd60e51b81526020600482015260126024820152714e6f206d6f7265206d696c6573746f6e657360701b6044820152606490fd5b15611c0e57565b60405162461bcd60e51b815260206004820152601a602482015279135a5b195cdd1bdb9948185b1c9958591e48185c1c1c9bdd995960321b6044820152606490fd5b15611c5757565b60405162461bcd60e51b8152602060048201526016602482015275119d5b991cc8185b1c9958591e481c995b19585cd95960521b6044820152606490fd5b15611c9c57565b60405162461bcd60e51b815260206004820152601b60248201527a4465736372697074696f6e2063616e6e6f7420626520656d70747960281b6044820152606490fd5b600019811461089a5760010190565b9190820180921161089a57565b90600090611d0b82548410611a98565b81825b84845260016020818152604090818720946007860154851015611d7057916001949391611d4e611d6a9460098099888d5201835284848c20015490611cee565b968a8a52838252828a200190858a525287200154841015611d7c565b01611d0e565b96505050505050915090565b15611d8357565b60405162461bcd60e51b815260206004820152601060248201526f496e7465676572206f766572666c6f7760801b6044820152606490fdfea2646970667358221220efc633cd27f5e4968d2fff6ad777849220c76ee241895a88479463bba94edb7c64736f6c63430008180033",
  "linkReferences": {},
  "deployedLinkReferences": {}
}