{
  "_format": "hh-sol-artifact-1",
  "contractName": "FundAllocation",
  "sourceName": "contracts/Fundtracking.sol",
  "abi": [
    {
      "anonymous": false,
      "inputs": [
        {
          "indexed": true,
          "internalType": "uint256",
          "name": "fundraiserId",
          "type": "uint256"
        },
        {
          "indexed": false,
          "internalType": "address",
          "name": "donor",
          "type": "address"
        },
        {
          "indexed": false,
          "internalType": "uint256",
          "name": "amount",
          "type": "uint256"
        }
      ],
      "name": "DonationReceived",
      "type": "event"
    },
    {
      "anonymous": false,
      "inputs": [
        {
          "indexed": true,
          "internalType": "uint256",
          "name": "id",
          "type": "uint256"
        },
        {
          "indexed": false,
          "internalType": "address",
          "name": "creator",
          "type": "address"
        },
        {
          "indexed": false,
          "internalType": "string",
          "name": "title",
          "type": "string"
        },
        {
          "indexed": false,
          "internalType": "uint256",
          "name": "targetAmount",
          "type": "uint256"
        }
      ],
      "name": "FundraiserCreated",
      "type": "event"
    },
    {
      "anonymous": false,
      "inputs": [
        {
          "indexed": true,
          "internalType": "uint256",
          "name": "fundraiserId",
          "type": "uint256"
        },
        {
          "indexed": false,
          "internalType": "uint256",
          "name": "milestoneIndex",
          "type": "uint256"
        },
        {
          "indexed": false,
          "internalType": "uint256",
          "name": "amount",
          "type": "uint256"
        }
      ],
      "name": "FundsReleased",
      "type": "event"
    },
    {
      "anonymous": false,
      "inputs": [
        {
          "indexed": true,
          "internalType": "uint256",
          "name": "fundraiserId",
          "type": "uint256"
        },
        {
          "indexed": false,
          "internalType": "uint256",
          "name": "milestoneIndex",
          "type": "uint256"
        }
      ],
      "name": "MilestoneApproved",
      "type": "event"
    },
    {
      "anonymous": false,
      "inputs": [
        {
          "indexed": true,
          "internalType": "uint256",
          "name": "fundraiserId",
          "type": "uint256"
        },
        {
          "indexed": false,
          "internalType": "uint256",
          "name": "milestoneIndex",
          "type": "uint256"
        },
        {
          "indexed": false,
          "internalType": "string",
          "name": "description",
          "type": "string"
        },
        {
          "indexed": false,
          "internalType": "uint256",
          "name": "amount",
          "type": "uint256"
        }
      ],
      "name": "MilestoneCreated",
      "type": "event"
    },
    {
      "anonymous": false,
      "inputs": [
        {
          "indexed": true,
          "internalType": "uint256",
          "name": "fundraiserId",
          "type": "uint256"
        },
        {
          "indexed": false,
          "internalType": "uint256",
          "name": "milestoneIndex",
          "type": "uint256"
        },
        {
          "indexed": false,
          "internalType": "address",
          "name": "voter",
          "type": "address"
        },
        {
          "indexed": false,
          "internalType": "bool",
          "name": "approved",
          "type": "bool"
        }
      ],
      "name": "MilestoneVoted",
      "type": "event"
    },
    {
      "anonymous": false,
      "inputs": [
        {
          "indexed": true,
          "internalType": "uint256",
          "name": "fundraiserId",
          "type": "uint256"
        },
        {
          "indexed": false,
          "internalType": "uint256",
          "name": "milestoneIndex",
          "type": "uint256"
        },
        {
          "indexed": false,
          "internalType": "string",
          "name": "proof",
          "type": "string"
        }
      ],
      "name": "ProofSubmitted",
      "type": "event"
    },
    {
      "inputs": [
        {
          "internalType": "uint256",
          "name": "_fundraiserId",
          "type": "uint256"
        },
        {
          "internalType": "string",
          "name": "_description",
          "type": "string"
        },
        {
          "internalType": "uint256",
          "name": "_amount",
          "type": "uint256"
        }
      ],
      "name": "addMilestone",
      "outputs": [],
      "stateMutability": "nonpayable",
      "type": "function"
    },
    {
      "inputs": [
        {
          "internalType": "string",
          "name": "_title",
          "type": "string"
        },
        {
          "internalType": "string",
          "name": "_description",
          "type": "string"
        },
        {
          "internalType": "uint256",
          "name": "_targetAmount",
          "type": "uint256"
        }
      ],
      "name": "createFundraiser",
      "outputs": [
        {
          "internalType": "uint256",
          "name": "",
          "type": "uint256"
        }
      ],
      "stateMutability": "nonpayable",
      "type": "function"
    },
    {
      "inputs": [
        {
          "internalType": "uint256",
          "name": "_fundraiserId",
          "type": "uint256"
        }
      ],
      "name": "donate",
      "outputs": [],
      "stateMutability": "payable",
      "type": "function"
    },
    {
      "inputs": [
        {
          "internalType": "uint256",
          "name": "",
          "type": "uint256"
        }
      ],
      "name": "fundraisers",
      "outputs": [
        {
          "internalType": "uint256",
          "name": "id",
          "type": "uint256"
        },
        {
          "internalType": "address",
          "name": "creator",
          "type": "address"
        },
        {
          "internalType": "string",
          "name": "title",
          "type": "string"
        },
        {
          "internalType": "string",
          "name": "description",
          "type": "string"
        },
        {
          "internalType": "uint256",
          "name": "targetAmount",
          "type": "uint256"
        },
        {
          "internalType": "uint256",
          "name": "raisedAmount",
          "type": "uint256"
        },
        {
          "internalType": "bool",
          "name": "active",
          "type": "bool"
        },
        {
          "internalType": "uint256",
          "name": "milestoneCount",
          "type": "uint256"
        },
        {
          "internalType": "uint256",
          "name": "currentMilestoneIndex",
          "type": "uint256"
        }
      ],
      "stateMutability": "view",
      "type": "function"
    },
    {
      "inputs": [
        {
          "internalType": "uint256",
          "name": "_fundraiserId",
          "type": "uint256"
        },
        {
          "internalType": "address",
          "name": "_donor",
          "type": "address"
        }
      ],
      "name": "getDonorContribution",
      "outputs": [
        {
          "internalType": "uint256",
          "name": "",
          "type": "uint256"
        }
      ],
      "stateMutability": "view",
      "type": "function"
    },
    {
      "inputs": [],
      "name": "getFundraiserCount",
      "outputs": [
        {
          "internalType": "uint256",
          "name": "",
          "type": "uint256"
        }
      ],
      "stateMutability": "view",
      "type": "function"
    },
    {
      "inputs": [
        {
          "internalType": "uint256",
          "name": "_fundraiserId",
          "type": "uint256"
        }
      ],
      "name": "getFundraiserDetails",
      "outputs": [
        {
          "internalType": "address",
          "name": "creator",
          "type": "address"
        },
        {
          "internalType": "string",
          "name": "title",
          "type": "string"
        },
        {
          "internalType": "string",
          "name": "description",
          "type": "string"
        },
        {
          "internalType": "uint256",
          "name": "targetAmount",
          "type": "uint256"
        },
        {
          "internalType": "uint256",
          "name": "raisedAmount",
          "type": "uint256"
        },
        {
          "internalType": "bool",
          "name": "active",
          "type": "bool"
        },
        {
          "internalType": "uint256",
          "name": "milestoneCount",
          "type": "uint256"
        },
        {
          "internalType": "uint256",
          "name": "currentMilestoneIndex",
          "type": "uint256"
        }
      ],
      "stateMutability": "view",
      "type": "function"
    },
    {
      "inputs": [
        {
          "internalType": "uint256",
          "name": "_fundraiserId",
          "type": "uint256"
        },
        {
          "internalType": "uint256",
          "name": "_milestoneIndex",
          "type": "uint256"
        }
      ],
      "name": "getMilestone",
      "outputs": [
        {
          "internalType": "string",
          "name": "description",
          "type": "string"
        },
        {
          "internalType": "uint256",
          "name": "amount",
          "type": "uint256"
        },
        {
          "internalType": "string",
          "name": "proof",
          "type": "string"
        },
        {
          "internalType": "bool",
          "name": "proofSubmitted",
          "type": "bool"
        },
        {
          "internalType": "bool",
          "name": "approved",
          "type": "bool"
        },
        {
          "internalType": "bool",
          "name": "fundsReleased",
          "type": "bool"
        },
        {
          "internalType": "uint256",
          "name": "yesVotes",
          "type": "uint256"
        },
        {
          "internalType": "uint256",
          "name": "noVotes",
          "type": "uint256"
        }
      ],
      "stateMutability": "view",
      "type": "function"
    },
    {
      "inputs": [
        {
          "internalType": "uint256",
          "name": "_fundraiserId",
          "type": "uint256"
        }
      ],
      "name": "getTotalMilestoneAmount",
      "outputs": [
        {
          "internalType": "uint256",
          "name": "",
          "type": "uint256"
        }
      ],
      "stateMutability": "view",
      "type": "function"
    },
    {
      "inputs": [
        {
          "internalType": "uint256",
          "name": "_fundraiserId",
          "type": "uint256"
        },
        {
          "internalType": "uint256",
          "name": "_milestoneIndex",
          "type": "uint256"
        },
        {
          "internalType": "address",
          "name": "_donor",
          "type": "address"
        }
      ],
      "name": "hasVoted",
      "outputs": [
        {
          "internalType": "bool",
          "name": "",
          "type": "bool"
        }
      ],
      "stateMutability": "view",
      "type": "function"
    },
    {
      "inputs": [
        {
          "internalType": "uint256",
          "name": "_fundraiserId",
          "type": "uint256"
        }
      ],
      "name": "releaseMilestoneFunds",
      "outputs": [],
      "stateMutability": "nonpayable",
      "type": "function"
    },
    {
      "inputs": [
        {
          "internalType": "uint256",
          "name": "_fundraiserId",
          "type": "uint256"
        },
        {
          "internalType": "string",
          "name": "_proof",
          "type": "string"
        }
      ],
      "name": "submitMilestoneProof",
      "outputs": [],
      "stateMutability": "nonpayable",
      "type": "function"
    },
    {
      "inputs": [
        {
          "internalType": "uint256",
          "name": "_fundraiserId",
          "type": "uint256"
        },
        {
          "internalType": "bool",
          "name": "_approved",
          "type": "bool"
        }
      ],
      "name": "voteMilestone",
      "outputs": [],
      "stateMutability": "nonpayable",
      "type": "function"
    }
  ],
  "bytecode": "0x60808060405234610016576116f9908161001c8239f35b600080fdfe6040608081526004908136101561001557600080fd5b600091823560e01c9081630d39a1d31461123b5781630e426d2414610f905781638ed9895c14610eb35781639881575714610df757816398df912e14610b18578163a1be44e014610ac3578163a2e54d75146108c3578163ba6f70311461089c578163c50870b1146104d2578163f14faf6f146103e6578163f38f72fb14610328578163f850356c146100d1575063fe62b7da146100b257600080fd5b346100cd57816003193601126100cd57602091549051908152f35b5080fd5b9190503461032457806003193601126103245781359160243591821515908184036103205761010286548610611478565b84865260209260018452600a82882001338852845281872054156102e857858752600184528187209061013b60ff60068401541661155f565b600882015493848952600983018652838920906003820197885460ff8116156102ab5760ff816101738261017d9460081c16156115a6565b60101c16156115ef565b6006830190338c5281895260ff878d2054166102785760606005959493888e8e957fab85204cc3f4a5213aaeac56baec47b9fe23ddb7ee575fe3f6d6f2b6226bf83095600014610255573382528d600a8c019052828220546101e38a8a019182546116b6565b90555b3382528d5220600160ff198254161790558851908a8252338c83015289820152a2015491015460011c10610218578580f35b7f939da3b627c123c81fe5aacebf925163337a0d4f8a03724640618078cad248949361010061ff001982541617905551908152a238808080808580f35b3382528d600a8c019052828220546102718b8a019182546116b6565b90556101e6565b865162461bcd60e51b81528086018a9052600d60248201526c105b1c9958591e481d9bdd1959609a1b6044820152606490fd5b865162461bcd60e51b81528086018a90526017602482015276141c9bdbd9881b9bdd081cdd589b5a5d1d1959081e595d604a1b6044820152606490fd5b83606492519162461bcd60e51b835282015260146024820152734f6e6c7920646f6e6f72732063616e20766f746560601b6044820152fd5b8580fd5b8280fd5b8284346103e35760203660031901126103e3578190833581526001602052209182549260018060a01b0360018201541690610365600282016113d3565b610371600383016113d3565b93820154936103c26005840154916103b460ff6006870154169460086007880154970154978a519b8c9b8c926020610120948594815201528c01528a0190611359565b9088820360608a0152611359565b94608087015260a0860152151560c085015260e08401526101008301520390f35b80fd5b91905060203660031901126103245781359161040484548410611478565b341561048157507f0b5b4c52969ff7329ecf7ee536409fda87812b15a8622bc6e8cdeab3aee14a26908284526001602052600a81852061044a60ff60068301541661155f565b600581016104593482546116b6565b9055338652016020528084206104703482546116b6565b90558051338152346020820152a280f35b6020608492519162461bcd60e51b8352820152602660248201527f446f6e6174696f6e20616d6f756e74206d75737420626520677265617465722060448201526507468616e20360d41b6064820152fd5b91905034610324576060366003190112610324576001600160401b0390823582811161089857610505903690850161130d565b6024358381116103205761051c903690860161130d565b946044359081156108495780549461053386611634565b82558582526001602097818952868420928884558284013360018060a01b0319825416179055600284018751828111610836578b6105718354611399565b601f81116107ee575b5050808c601f8211600114610782578891610777575b50600019600383901b1c191690851b1790555b8a5160038501918111610764576105ba8254611399565b601f8111610722575b50899a9b869a999a508c908d601f841160011461066c575093889693838997946106539b946008987f29ddd37de3bb953acd135fb5ec12c7a3a99484ebb4d586be9d04c5042a48c53b9e9c92610661575b5050600019600383901b1c191690851b1790555b830155600682019060ff198254161790550155855192839233845260608a8501526060840190611359565b90868301520390a251908152f35b015190503880610614565b9a99989796959493929190601f1983168489528c89209c89905b8282106106f157505095837f29ddd37de3bb953acd135fb5ec12c7a3a99484ebb4d586be9d04c5042a48c53b9c9d8b9a9997948397946106539e9d9760089b106106d8575b505050811b019055610628565b015160001960f88460031b161c191690553880806106cb565b809293949698809b9d9f829397999b9d9f5088870151815501960194018f9c9a9896949392919d9b9997959d610686565b8287528b8720601f830160051c8101918d841061075a575b601f0160051c01905b81811061075057506105c3565b8781558501610743565b909150819061073a565b634e487b7160e01b865260418352602486fd5b905089015138610590565b8692508d90601f198316858b528c838c20938c915b8383106107cd5750505083116107b4575b5050811b0190556105a3565b8b015160001960f88460031b161c1916905538806107a8565b94848294959798929396015181550194019201908f9189959493928e610797565b83895281892090601f840160051c820192841061082c575b601f0160051c019086905b82811061082157508d915061057a565b898155018690610811565b9091508190610806565b634e487b7160e01b875260418452602487fd5b835162461bcd60e51b81526020818801526024808201527f54617267657420616d6f756e74206d75737420626520677265617465722074686044820152630616e20360e41b6064820152608490fd5b8480fd5b8284346103e35760203660031901126103e357506108bc60209235611659565b9051908152f35b9050346103245760209182600319360112610abf5781356108e685548210611478565b808552600180855282862001546001600160a01b03929061090a9084163314611507565b8186526001855280862093600685019561092760ff88541661155f565b6008860194855492838a52600988018352848a209160038301805460ff8160081c1615610a835761095e60ff8260101c16156115ef565b600160058c0154950194855411610a4b578c8093819362010000839462ff0000191617905561098d8c54611634565b8c5560018d0154168654905af13d15610a46573d6109aa816112f2565b906109b7885192836112bb565b81528b853d92013e5b15610a1157505483519283529082015260079392917f24d2f6e8ac6c13d1e7610752ab0b7ce03d5043806a65d3d631ae859ad81d159b91a2549101541115610a06575080f35b805460ff1916905580f35b845162461bcd60e51b8152908101839052600f60248201526e151c985b9cd9995c8819985a5b1959608a1b6044820152606490fd5b6109c0565b875162461bcd60e51b81528085018790526012602482015271496e73756666696369656e742066756e647360701b6044820152606490fd5b875162461bcd60e51b81528085018790526016602482015275135a5b195cdd1bdb99481b9bdd08185c1c1c9bdd995960521b6044820152606490fd5b8380fd5b9050346103245781600319360112610324576024356001600160a01b038116913590829003610abf57928291602094610afe83548210611478565b825260018552600a83832001908252845220549051908152f35b8383346100cd5760603660031901126100cd57823590602435936001600160401b039485811161089857610b4f903690830161130d565b91604435610b5f86548610611478565b848652600193602094808652610b8360018060a01b0382868b200154163314611507565b86885280865283882094610b9d60ff60068801541661155f565b8315610db45780860154610bb089611659565b8103908111610da1578411610d5e57600786019960098b5497888c52018852858a20918451918211610d4b5750610be78254611399565b601f8111610d05575b5087601f8211600114610c7e57928a9b92828793610c6997967f3d198c5d9c28f50bf234c9c1a9a84f7ed3a20d152833a06c844a8e897261abd29d9e91610c73575b50600019600383901b1c191690831b1781555b0155610c518154611634565b90556060845196879687528601526060850190611359565b918301520390a280f35b90508601518f610c32565b828b52888b2090601f1983168c5b818110610cf05750948381937f3d198c5d9c28f50bf234c9c1a9a84f7ed3a20d152833a06c844a8e897261abd29d9e9f96938a96610c699a9910610cd7575b5050811b018155610c45565b88015160001960f88460031b161c191690558f80610ccb565b87830151845592860192918b01918b01610c8c565b828b52888b20601f830160051c8101918a8410610d41575b601f0160051c019084905b828110610d36575050610bf0565b8c8155018490610d28565b9091508190610d1d565b634e487b7160e01b8b526041905260248afd5b845162461bcd60e51b8152908101879052601f60248201527f416d6f756e7420657863656564732072656d61696e696e6720746172676574006044820152606490fd5b634e487b7160e01b8a526011825260248afd5b845162461bcd60e51b8152908101879052601d60248201527f416d6f756e74206d7573742062652067726561746572207468616e20300000006044820152606490fd5b905082346103e35760203660031901126103e35782908235610e1b82548210611478565b81526001602052209160018060a01b036001840154169183015490600584015460ff600686015416600786015491610e93600888015494610e6a6003610e6360028c016113d3565b9a016113d3565b610e8682519a8b9a610100908c528060208d01528b0190611359565b91898303908a0152611359565b9460608701526080860152151560a085015260c084015260e08301520390f35b90503461032457816003193601126103245781610f4d93823560243590610edc83548210611478565b8083526001602052610ef56007858520015483106114c0565b825260016020526009838320019082526020522091600183015460ff610f5f60038601549486015492600587015494610f396002610f328a6113d3565b99016113d3565b908051998a99610100808c528b0190611359565b9260208a015288830390890152611359565b9381811615156060870152818160081c161515608087015260101c16151560a085015260c084015260e08301520390f35b919050346103245780600319360112610324578135916001600160401b039160243583811161032057610fc6903690840161130d565b90610fd386548610611478565b848652600193602094808652610ff760018060a01b0382858b200154163314611507565b8688528086528288209461101160ff60068801541661155f565b600886015495600781015487101561120357600990878b52018752838920926003840193845460ff81166111c6579061105760ff836101738260029660081c16156115a6565b01918651918211610d4b575061106d8254611399565b601f8111611180575b5087601f82116001146110f85791816110e79694927fa0369f36b2a8975ad69f1e8b8de8b56312cbcfe25149ce1e43f83d5e612f451b9a999896948d916110ed575b50600019600383901b1c191690831b1790555b60ff198254161790558080519586958652850152830190611359565b0390a280f35b9050860151386110b8565b828b52888b2090601f1983168c5b81811061116b5750927fa0369f36b2a8975ad69f1e8b8de8b56312cbcfe25149ce1e43f83d5e612f451b9a9998969492869492826110e79a989410611152575b5050811b0190556110cb565b88015160001960f88460031b161c191690553880611146565b89830151845592860192918b01918b01611106565b828b52888b20601f830160051c8101918a84106111bc575b601f0160051c019084905b8281106111b1575050611076565b8c81550184906111a3565b9091508190611198565b865162461bcd60e51b81528085018b90526017602482015276141c9bdbd988185b1c9958591e481cdd589b5a5d1d1959604a1b6044820152606490fd5b845162461bcd60e51b815280830189905260126024820152714e6f206d6f7265206d696c6573746f6e657360701b6044820152606490fd5b90503461032457606036600319011261032457356024356044359160018060a01b038316809303610898579360ff92849260209661127b84548210611478565b808452600188526112936007868620015483106114c0565b8352600187526009848420019083528652600683832001908252855220541690519015158152f35b90601f801991011681019081106001600160401b038211176112dc57604052565b634e487b7160e01b600052604160045260246000fd5b6001600160401b0381116112dc57601f01601f191660200190565b81601f8201121561135457803590611324826112f2565b9261133260405194856112bb565b8284526020838301011161135457816000926020809301838601378301015290565b600080fd5b919082519283825260005b848110611385575050826000602080949584010152601f8019910116010190565b602081830181015184830182015201611364565b90600182811c921680156113c9575b60208310146113b357565b634e487b7160e01b600052602260045260246000fd5b91607f16916113a8565b906040519182600082546113e681611399565b908184526020946001916001811690816000146114565750600114611417575b505050611415925003836112bb565b565b600090815285812095935091905b81831061143e5750506114159350820101388080611406565b85548884018501529485019487945091830191611425565b9250505061141594925060ff191682840152151560051b820101388080611406565b1561147f57565b60405162461bcd60e51b8152602060048201526019602482015278119d5b991c985a5cd95c88191bd95cc81b9bdd08195e1a5cdd603a1b6044820152606490fd5b156114c757565b60405162461bcd60e51b8152602060048201526018602482015277135a5b195cdd1bdb9948191bd95cc81b9bdd08195e1a5cdd60421b6044820152606490fd5b1561150e57565b60405162461bcd60e51b8152602060048201526024808201527f4f6e6c792063726561746f722063616e20706572666f726d20746869732061636044820152633a34b7b760e11b6064820152608490fd5b1561156657565b60405162461bcd60e51b815260206004820152601860248201527746756e64726169736572206973206e6f742061637469766560401b6044820152606490fd5b156115ad57565b60405162461bcd60e51b815260206004820152601a602482015279135a5b195cdd1bdb9948185b1c9958591e48185c1c1c9bdd995960321b6044820152606490fd5b156115f657565b60405162461bcd60e51b8152602060048201526016602482015275119d5b991cc8185b1c9958591e481c995b19585cd95960521b6044820152606490fd5b60001981146116435760010190565b634e487b7160e01b600052601160045260246000fd5b90600061166881548410611478565b809181925b8483526001602081815260409081862060078101548810156116aa578787526009019052842001546001916116a291906116b6565b93019261166d565b50505050925092505090565b919082018092116116435756fea2646970667358221220b182e844ef8d65b430b5381e142715c06aae8223892e9e7e45c980f110d35b2e64736f6c63430008180033",
  "linkReferences": {},
  "deployedLinkReferences": {}
}