{
  "_format": "hh-sol-artifact-1",
  "contractName": "FundAllocation",
  "sourceName": "contracts/Fundtracking.sol",
  "abi": [
    {
      "inputs": [
        {
          "internalType": "address[]",
          "name": "_owners",
          "type": "address[]"
        },
        {
          "internalType": "uint256",
          "name": "_required",
          "type": "uint256"
        }
      ],
      "stateMutability": "nonpayable",
      "type": "constructor"
    },
    {
      "anonymous": false,
      "inputs": [
        {
          "indexed": true,
          "internalType": "uint256",
          "name": "fundraiserId",
          "type": "uint256"
        },
        {
          "indexed": true,
          "internalType": "address",
          "name": "donor",
          "type": "address"
        },
        {
          "indexed": false,
          "internalType": "uint256",
          "name": "amount",
          "type": "uint256"
        }
      ],
      "name": "DonationReceived",
      "type": "event"
    },
    {
      "anonymous": false,
      "inputs": [
        {
          "indexed": true,
          "internalType": "uint256",
          "name": "id",
          "type": "uint256"
        },
        {
          "indexed": false,
          "internalType": "string",
          "name": "name",
          "type": "string"
        },
        {
          "indexed": true,
          "internalType": "address",
          "name": "creator",
          "type": "address"
        },
        {
          "indexed": false,
          "internalType": "uint256",
          "name": "goal",
          "type": "uint256"
        }
      ],
      "name": "FundraiserCreated",
      "type": "event"
    },
    {
      "anonymous": false,
      "inputs": [
        {
          "indexed": true,
          "internalType": "uint256",
          "name": "requestId",
          "type": "uint256"
        },
        {
          "indexed": true,
          "internalType": "address",
          "name": "approver",
          "type": "address"
        }
      ],
      "name": "WithdrawalApproved",
      "type": "event"
    },
    {
      "anonymous": false,
      "inputs": [
        {
          "indexed": true,
          "internalType": "uint256",
          "name": "requestId",
          "type": "uint256"
        },
        {
          "indexed": false,
          "internalType": "address",
          "name": "to",
          "type": "address"
        },
        {
          "indexed": false,
          "internalType": "uint256",
          "name": "amount",
          "type": "uint256"
        }
      ],
      "name": "WithdrawalExecuted",
      "type": "event"
    },
    {
      "anonymous": false,
      "inputs": [
        {
          "indexed": true,
          "internalType": "uint256",
          "name": "requestId",
          "type": "uint256"
        },
        {
          "indexed": true,
          "internalType": "uint256",
          "name": "fundraiserId",
          "type": "uint256"
        },
        {
          "indexed": false,
          "internalType": "address",
          "name": "to",
          "type": "address"
        },
        {
          "indexed": false,
          "internalType": "uint256",
          "name": "amount",
          "type": "uint256"
        }
      ],
      "name": "WithdrawalRequestCreated",
      "type": "event"
    },
    {
      "inputs": [
        {
          "internalType": "uint256",
          "name": "_requestId",
          "type": "uint256"
        }
      ],
      "name": "approveWithdrawalRequest",
      "outputs": [],
      "stateMutability": "nonpayable",
      "type": "function"
    },
    {
      "inputs": [
        {
          "internalType": "string",
          "name": "_name",
          "type": "string"
        },
        {
          "internalType": "string",
          "name": "_description",
          "type": "string"
        },
        {
          "internalType": "uint256",
          "name": "_goal",
          "type": "uint256"
        }
      ],
      "name": "createFundraiser",
      "outputs": [
        {
          "internalType": "uint256",
          "name": "",
          "type": "uint256"
        }
      ],
      "stateMutability": "nonpayable",
      "type": "function"
    },
    {
      "inputs": [
        {
          "internalType": "uint256",
          "name": "_fundraiserId",
          "type": "uint256"
        },
        {
          "internalType": "string",
          "name": "_reason",
          "type": "string"
        },
        {
          "internalType": "uint256",
          "name": "_amount",
          "type": "uint256"
        }
      ],
      "name": "createWithdrawalRequest",
      "outputs": [
        {
          "internalType": "uint256",
          "name": "",
          "type": "uint256"
        }
      ],
      "stateMutability": "nonpayable",
      "type": "function"
    },
    {
      "inputs": [
        {
          "internalType": "uint256",
          "name": "_fundraiserId",
          "type": "uint256"
        }
      ],
      "name": "donate",
      "outputs": [],
      "stateMutability": "payable",
      "type": "function"
    },
    {
      "inputs": [
        {
          "internalType": "uint256",
          "name": "_requestId",
          "type": "uint256"
        }
      ],
      "name": "executeWithdrawalRequest",
      "outputs": [],
      "stateMutability": "nonpayable",
      "type": "function"
    },
    {
      "inputs": [
        {
          "internalType": "uint256",
          "name": "",
          "type": "uint256"
        }
      ],
      "name": "fundraisers",
      "outputs": [
        {
          "internalType": "uint256",
          "name": "id",
          "type": "uint256"
        },
        {
          "internalType": "string",
          "name": "name",
          "type": "string"
        },
        {
          "internalType": "string",
          "name": "description",
          "type": "string"
        },
        {
          "internalType": "uint256",
          "name": "goal",
          "type": "uint256"
        },
        {
          "internalType": "uint256",
          "name": "raised",
          "type": "uint256"
        },
        {
          "internalType": "address",
          "name": "creator",
          "type": "address"
        },
        {
          "internalType": "enum FundAllocation.FundraiserStatus",
          "name": "status",
          "type": "uint8"
        }
      ],
      "stateMutability": "view",
      "type": "function"
    },
    {
      "inputs": [
        {
          "internalType": "uint256",
          "name": "_requestId",
          "type": "uint256"
        }
      ],
      "name": "getApprovers",
      "outputs": [
        {
          "internalType": "address[]",
          "name": "",
          "type": "address[]"
        }
      ],
      "stateMutability": "view",
      "type": "function"
    },
    {
      "inputs": [],
      "name": "getFundraiserCount",
      "outputs": [
        {
          "internalType": "uint256",
          "name": "",
          "type": "uint256"
        }
      ],
      "stateMutability": "view",
      "type": "function"
    },
    {
      "inputs": [],
      "name": "getOwners",
      "outputs": [
        {
          "internalType": "address[]",
          "name": "",
          "type": "address[]"
        }
      ],
      "stateMutability": "view",
      "type": "function"
    },
    {
      "inputs": [
        {
          "internalType": "uint256",
          "name": "_requestId",
          "type": "uint256"
        }
      ],
      "name": "getWithdrawalRequest",
      "outputs": [
        {
          "components": [
            {
              "internalType": "uint256",
              "name": "fundraiserId",
              "type": "uint256"
            },
            {
              "internalType": "address",
              "name": "to",
              "type": "address"
            },
            {
              "internalType": "uint256",
              "name": "amount",
              "type": "uint256"
            },
            {
              "internalType": "string",
              "name": "reason",
              "type": "string"
            },
            {
              "internalType": "bool",
              "name": "executed",
              "type": "bool"
            }
          ],
          "internalType": "struct FundAllocation.WithdrawalRequest",
          "name": "",
          "type": "tuple"
        }
      ],
      "stateMutability": "view",
      "type": "function"
    },
    {
      "inputs": [],
      "name": "getWithdrawalRequestCount",
      "outputs": [
        {
          "internalType": "uint256",
          "name": "",
          "type": "uint256"
        }
      ],
      "stateMutability": "view",
      "type": "function"
    },
    {
      "inputs": [
        {
          "internalType": "uint256",
          "name": "",
          "type": "uint256"
        }
      ],
      "name": "owners",
      "outputs": [
        {
          "internalType": "address",
          "name": "",
          "type": "address"
        }
      ],
      "stateMutability": "view",
      "type": "function"
    },
    {
      "inputs": [],
      "name": "required",
      "outputs": [
        {
          "internalType": "uint256",
          "name": "",
          "type": "uint256"
        }
      ],
      "stateMutability": "view",
      "type": "function"
    }
  ],
  "bytecode": "0x604060808152346200024357620015b3803803806200001e8162000248565b9283398101918082840312620002435781516001600160401b0393908481116200024357830181601f820112156200024357805193602095851162000138576005928560051b87806200007381840162000248565b809981520191850101918211620002435790878094015b8181106200021b57505050015192805115620001e55783151580620001d9575b15620001955760005b8151811015620001825780831b82018601516001600160a01b03169081156200014e576000549168010000000000000000831015620001385760018301806000558310156200012257600080805288902090920180546001600160a01b031916909217909155600101620000b3565b634e487b7160e01b600052603260045260246000fd5b634e487b7160e01b600052604160045260246000fd5b845162461bcd60e51b815260048101889052600d60248201526c24b73b30b634b21037bbb732b960991b6044820152606490fd5b83856001555161134490816200026f8239f35b825162461bcd60e51b815260048101869052601760248201527f496e76616c6964207265717569726564206e756d6265720000000000000000006044820152606490fd5b508051841115620000aa565b825162461bcd60e51b815260048101869052600f60248201526e13dddb995c9cc81c995c5d5a5c9959608a1b6044820152606490fd5b8051945090916001600160a01b0385168503620002435793845287938401919084016200008a565b600080fd5b6040519190601f01601f191682016001600160401b03811183821017620001385760405256fe6080604052600436101561001257600080fd5b60003560e01c8063025e7c2714610ec35780635f7fa1f414610ea55780637b6a4b0714610d7b578063a0e67e2b14610cfb578063ae48565114610c10578063c50870b11461084a578063c65df794146107b7578063dc8452cd14610799578063e59a224a14610423578063f00aa90a14610295578063f14faf6f14610194578063f38f72fb146100ce5763fe62b7da146100ab57600080fd5b346100c95760003660031901126100c9576020600254604051908152f35b600080fd5b346100c95760203660031901126100c957600435600052600360205260406000208054906100fe600182016110bd565b9061010b600282016110bd565b60038201549161014f600560048301549201549261014160ff8560a01c169660405198895260e060208a015260e0890190610fa5565b908782036040890152610fa5565b606086019390935260808501526001600160a01b031660a0840152600582101561017e57829160c08301520390f35b634e487b7160e01b600052602160045260246000fd5b60203660031901126100c9576004356101b0600254821061120d565b8060005260036020526040600020600581019081549060ff8260a01c16600581101561017e5760010361025857600481018054913483018093116102425782600392550154111561022c575b82604051903482527f0b5b4c52969ff7329ecf7ee536409fda87812b15a8622bc6e8cdeab3aee14a2660203393a3005b60ff60a01b1916600160a11b17905581806101fc565b634e487b7160e01b600052601160045260246000fd5b60405162461bcd60e51b815260206004820152601560248201527446756e64726169736572206e6f742061637469766560581b6044820152606490fd5b346100c9576020806003193601126100c9576004356102b76004548210611162565b6102d160ff60046102c7846111a7565b50015416156111c6565b8060005260058252604060002054600154116103e7576102f0816111a7565b5060048101600160ff198254161790558054600052600383526040600020600282019160048354920191825490810390811161024257600192550160018060a01b03906000808080858554168754905af13d156103e2573d61035181611021565b9061035f6040519283611000565b81526000873d92013e5b156103ab577fd6cddb3d69146e96ebc2c87b1b3dd0b20ee2d3b0eadf134e011afb434a3e56e693945054169054906103a660405192839283611255565b0390a2005b60405162461bcd60e51b815260048101869052600f60248201526e151c985b9cd9995c8819985a5b1959608a1b6044820152606490fd5b610369565b60405162461bcd60e51b81526004810183905260146024820152734e6f7420656e6f75676820617070726f76616c7360601b6044820152606490fd5b346100c95760603660031901126100c9576001600160401b03602460043581358381116100c95761045890369060040161103c565b90604435610469600254831061120d565b816000526020936003855260406000209560ff600588015460a01c1696600588101561078457600197888114908115610779575b5015610735576004015483116106fc5760045494604051916104be83610fe5565b858352878301933385526040840186815260608501938452608085019560008752600160401b8a10156106e7578b8a016004556104fa8a6111a7565b9690966106d257518655518b860180546001600160a01b0319166001600160a01b0392909216919091179055516002850155915180516003850193909283116106be57506105488354611083565b601f8111610679575b5097989697959688968a906001601f8511146105e5579280807f7d050e590d7330cb1b3d997faed807b9489eaaf316e49fb1eb7b5e91708a22a79997946105cf9997946004976000946105da575b50501b916000199060031b1c19161790555b019051151560ff801983541691161790556040519182913383611255565b0390a3604051908152f35b015192508f8061059f565b60008581528c8120939493929190601f198516908e5b828210610661575050926004959285927f7d050e590d7330cb1b3d997faed807b9489eaaf316e49fb1eb7b5e91708a22a79b99966105cf9b999610610648575b505050811b0190556105b1565b015160001960f88460031b161c191690558d808061063b565b8484015186558e9c509487019493840193018e6105fb565b8360005289600020601f840160051c8101918b85106106b4575b601f0160051c01905b8181106106a95750610551565b600081558b0161069c565b9091508190610693565b634e487b7160e01b60009081526041600452fd5b83634e487b7160e01b60005260006004526000fd5b82634e487b7160e01b60005260416004526000fd5b60405162461bcd60e51b81526004810187905260128184015271496e73756666696369656e742066756e647360701b6044820152606490fd5b60405162461bcd60e51b815260048101889052601d818501527f46756e64726169736572206e6f7420696e2076616c69642073746174650000006044820152606490fd5b60029150148961049d565b82634e487b7160e01b60005260216004526000fd5b346100c95760003660031901126100c9576020600154604051908152f35b346100c9576020806003193601126100c9576004356107d96004548210611162565b60005260056020526040600020906040519081602084549182815201936000526020600020916000905b82821061082a576108268561081a81890382611000565b60405191829182610f60565b0390f35b83546001600160a01b031686529485019460019384019390910190610803565b346100c95760603660031901126100c9576004356001600160401b0381116100c95761087a90369060040161103c565b6024356001600160401b0381116100c95761089990369060040161103c565b600254906040519060e082018281106001600160401b03821117610b2a57604052828252602082019084825260408301526044356060830152600060808301523360a0830152600160c083015282600052600360205260406000209082518255518051906001600160401b038211610b2a57819061091a6001850154611083565b601f8111610bbd575b50602090601f8311600114610b4b57600092610b40575b50508160011b916000199060031b1c19161760018201555b60408201518051906001600160401b038211610b2a576109756002840154611083565b601f8111610ae3575b50602090601f8311600114610a7057600593929160009183610a65575b50508160011b916000199060031b1c19161760028201555b6060830151600382015560808301516004820155019060018060a01b0360a08201511660c08354920151600581101561017e576001600160a81b03199092161760a09190911b60ff60a01b1617905560025491600019831461024257600160209301600255817feb18f7b40c1e4828a8c04aa4805ed3290b46ce17b507ad9ff87fb4ecabab30dd610a4f60405193604085526040850190610fa5565b92604435868201528033940390a3604051908152f35b01519050878061099b565b906002840160005260206000209160005b601f1985168110610acb575091839160019360059695601f19811610610ab2575b505050811b0160028201556109b3565b015160001960f88460031b161c19169055878080610aa2565b91926020600181928685015181550194019201610a81565b600284016000526020600020601f840160051c810160208510610b23575b601f830160051c82018110610b1757505061097e565b60008155600101610b01565b5080610b01565b634e487b7160e01b600052604160045260246000fd5b01519050868061093a565b9250600184016000526020600020906000935b601f1984168510610ba2576001945083601f19811610610b89575b505050811b016001820155610952565b015160001960f88460031b161c19169055868080610b79565b81810151835560209485019460019093019290910190610b5e565b909150600184016000526020600020601f840160051c810160208510610c09575b90849392915b601f830160051c82018110610bfa575050610923565b60008155859450600101610be4565b5080610bde565b346100c95760203660031901126100c957610c6060043560006080604051610c3781610fe5565b8281528260208201528260408201526060808201520152610c5b6004548210611162565b6111a7565b50604051610c6d81610fe5565b8154815260018201546001600160a01b03908116602083019081526002840154604084019081529093610cee9160ff6004610caa600385016110bd565b93606088019485520154169360808601941515855260405196879660208852516020880152511660408601525160608501525160a0608085015260c0840190610fa5565b9051151560a08301520390f35b346100c95760003660031901126100c95760405160008054808352818052602080840193927f290decd9548b62a8d60345a988386fc84ba6bc95484008f6362f93160ef3e56392915b828210610d5b576108268561081a81890382611000565b83546001600160a01b031686529485019460019384019390910190610d44565b346100c95760203660031901126100c957600435610d9c6004548210611162565b610dac60ff60046102c7846111a7565b610db533611270565b15610e7157610dc433826112bc565b610e395760008181526005602052604090208054600160401b811015610b2a57610df391600182018155610f32565b81546001600160a01b0360039290921b91821b1916339182901b17909155907f7ab1df95613019ba98da0113a7adf5073c9fa62d93b5f202502115266aadc06a600080a3005b60405162461bcd60e51b815260206004820152601060248201526f105b1c9958591e48185c1c1c9bdd995960821b6044820152606490fd5b60405162461bcd60e51b815260206004820152600c60248201526b2737ba1030b71037bbb732b960a11b6044820152606490fd5b346100c95760003660031901126100c9576020600454604051908152f35b346100c95760203660031901126100c9576004356000548110156100c957610eec602091610f05565b905460405160039290921b1c6001600160a01b03168152f35b906000918254811015610f1e5782805260208320019190565b634e487b7160e01b83526032600452602483fd5b8054821015610f4a5760005260206000200190600090565b634e487b7160e01b600052603260045260246000fd5b602090602060408183019282815285518094520193019160005b828110610f88575050505090565b83516001600160a01b031685529381019392810192600101610f7a565b919082519283825260005b848110610fd1575050826000602080949584010152601f8019910116010190565b602081830181015184830182015201610fb0565b60a081019081106001600160401b03821117610b2a57604052565b90601f801991011681019081106001600160401b03821117610b2a57604052565b6001600160401b038111610b2a57601f01601f191660200190565b81601f820112156100c95780359061105382611021565b926110616040519485611000565b828452602083830101116100c957816000926020809301838601378301015290565b90600182811c921680156110b3575b602083101461109d57565b634e487b7160e01b600052602260045260246000fd5b91607f1691611092565b906040519182600082546110d081611083565b908184526020946001916001811690816000146111405750600114611101575b5050506110ff92500383611000565b565b600090815285812095935091905b8183106111285750506110ff93508201013880806110f0565b8554888401850152948501948794509183019161110f565b925050506110ff94925060ff191682840152151560051b8201013880806110f0565b1561116957565b60405162461bcd60e51b815260206004820152601660248201527514995c5d595cdd08191bd95cc81b9bdd08195e1a5cdd60521b6044820152606490fd5b600454811015610f4a5760046000526005602060002091020190600090565b156111cd57565b60405162461bcd60e51b815260206004820152601860248201527714995c5d595cdd08185b1c9958591e48195e1958dd5d195960421b6044820152606490fd5b1561121457565b60405162461bcd60e51b8152602060048201526019602482015278119d5b991c985a5cd95c88191bd95cc81b9bdd08195e1a5cdd603a1b6044820152606490fd5b6001600160a01b039091168152602081019190915260400190565b600090600054915b82811061128757505050600090565b61129081610f05565b905460039190911b1c6001600160a01b03908116908316146112b457600101611278565b505050600190565b9060005b8260005260056020526040600020805482101561130557816112e191610f32565b905460039190911b1c6001600160a01b03908116908316146112b4576001016112c0565b5050505060009056fea26469706673582212209e2cf4ae9d53887fb9cd3ad2534d241704745a8d7ee76b85e552e221aa4a6d4b64736f6c63430008180033",
  "linkReferences": {},
  "deployedLinkReferences": {}
}