{
  "_format": "hh-sol-artifact-1",
  "contractName": "FundAllocation",
  "sourceName": "contracts/Fundtracking.sol",
  "abi": [
    {
      "inputs": [],
      "stateMutability": "nonpayable",
      "type": "constructor"
    },
    {
      "anonymous": false,
      "inputs": [
        {
          "indexed": true,
          "internalType": "uint256",
          "name": "projectId",
          "type": "uint256"
        },
        {
          "indexed": true,
          "internalType": "address",
          "name": "sender",
          "type": "address"
        },
        {
          "indexed": true,
          "internalType": "address",
          "name": "recipient",
          "type": "address"
        },
        {
          "indexed": false,
          "internalType": "uint256",
          "name": "amount",
          "type": "uint256"
        },
        {
          "indexed": false,
          "internalType": "string",
          "name": "projectName",
          "type": "string"
        },
        {
          "indexed": false,
          "internalType": "uint256",
          "name": "timestamp",
          "type": "uint256"
        }
      ],
      "name": "FundsAllocated",
      "type": "event"
    },
    {
      "anonymous": false,
      "inputs": [
        {
          "indexed": true,
          "internalType": "uint256",
          "name": "projectId",
          "type": "uint256"
        },
        {
          "indexed": true,
          "internalType": "address",
          "name": "recipient",
          "type": "address"
        },
        {
          "indexed": false,
          "internalType": "uint256",
          "name": "amount",
          "type": "uint256"
        },
        {
          "indexed": false,
          "internalType": "uint256",
          "name": "timestamp",
          "type": "uint256"
        }
      ],
      "name": "FundsReleased",
      "type": "event"
    },
    {
      "anonymous": false,
      "inputs": [
        {
          "indexed": true,
          "internalType": "uint256",
          "name": "projectId",
          "type": "uint256"
        },
        {
          "indexed": true,
          "internalType": "address",
          "name": "validator",
          "type": "address"
        }
      ],
      "name": "ProjectValidated",
      "type": "event"
    },
    {
      "anonymous": false,
      "inputs": [
        {
          "indexed": true,
          "internalType": "address",
          "name": "validator",
          "type": "address"
        }
      ],
      "name": "ValidatorAdded",
      "type": "event"
    },
    {
      "anonymous": false,
      "inputs": [
        {
          "indexed": true,
          "internalType": "address",
          "name": "validator",
          "type": "address"
        }
      ],
      "name": "ValidatorRemoved",
      "type": "event"
    },
    {
      "inputs": [
        {
          "internalType": "address",
          "name": "_validator",
          "type": "address"
        }
      ],
      "name": "addValidator",
      "outputs": [],
      "stateMutability": "nonpayable",
      "type": "function"
    },
    {
      "inputs": [
        {
          "internalType": "string",
          "name": "_projectName",
          "type": "string"
        },
        {
          "internalType": "string",
          "name": "_description",
          "type": "string"
        },
        {
          "internalType": "address",
          "name": "_recipient",
          "type": "address"
        }
      ],
      "name": "allocateFunds",
      "outputs": [],
      "stateMutability": "payable",
      "type": "function"
    },
    {
      "inputs": [],
      "name": "getBalance",
      "outputs": [
        {
          "internalType": "uint256",
          "name": "",
          "type": "uint256"
        }
      ],
      "stateMutability": "view",
      "type": "function"
    },
    {
      "inputs": [
        {
          "internalType": "uint256",
          "name": "_projectId",
          "type": "uint256"
        }
      ],
      "name": "getProject",
      "outputs": [
        {
          "internalType": "string",
          "name": "name",
          "type": "string"
        },
        {
          "internalType": "string",
          "name": "description",
          "type": "string"
        },
        {
          "internalType": "address",
          "name": "recipient",
          "type": "address"
        },
        {
          "internalType": "uint256",
          "name": "amount",
          "type": "uint256"
        },
        {
          "internalType": "uint256",
          "name": "timestamp",
          "type": "uint256"
        },
        {
          "internalType": "bool",
          "name": "released",
          "type": "bool"
        },
        {
          "internalType": "bool",
          "name": "completed",
          "type": "bool"
        },
        {
          "internalType": "uint256",
          "name": "validations",
          "type": "uint256"
        }
      ],
      "stateMutability": "view",
      "type": "function"
    },
    {
      "inputs": [],
      "name": "getProjectCount",
      "outputs": [
        {
          "internalType": "uint256",
          "name": "",
          "type": "uint256"
        }
      ],
      "stateMutability": "view",
      "type": "function"
    },
    {
      "inputs": [],
      "name": "getValidators",
      "outputs": [
        {
          "internalType": "address[]",
          "name": "",
          "type": "address[]"
        }
      ],
      "stateMutability": "view",
      "type": "function"
    },
    {
      "inputs": [
        {
          "internalType": "uint256",
          "name": "_projectId",
          "type": "uint256"
        },
        {
          "internalType": "address",
          "name": "_validator",
          "type": "address"
        }
      ],
      "name": "hasValidated",
      "outputs": [
        {
          "internalType": "bool",
          "name": "",
          "type": "bool"
        }
      ],
      "stateMutability": "view",
      "type": "function"
    },
    {
      "inputs": [],
      "name": "owner",
      "outputs": [
        {
          "internalType": "address",
          "name": "",
          "type": "address"
        }
      ],
      "stateMutability": "view",
      "type": "function"
    },
    {
      "inputs": [
        {
          "internalType": "uint256",
          "name": "",
          "type": "uint256"
        }
      ],
      "name": "projectValidationStartTime",
      "outputs": [
        {
          "internalType": "uint256",
          "name": "",
          "type": "uint256"
        }
      ],
      "stateMutability": "view",
      "type": "function"
    },
    {
      "inputs": [
        {
          "internalType": "uint256",
          "name": "",
          "type": "uint256"
        },
        {
          "internalType": "address",
          "name": "",
          "type": "address"
        }
      ],
      "name": "projectValidations",
      "outputs": [
        {
          "internalType": "bool",
          "name": "",
          "type": "bool"
        }
      ],
      "stateMutability": "view",
      "type": "function"
    },
    {
      "inputs": [
        {
          "internalType": "uint256",
          "name": "",
          "type": "uint256"
        }
      ],
      "name": "projects",
      "outputs": [
        {
          "internalType": "string",
          "name": "name",
          "type": "string"
        },
        {
          "internalType": "string",
          "name": "description",
          "type": "string"
        },
        {
          "internalType": "address",
          "name": "recipient",
          "type": "address"
        },
        {
          "internalType": "uint256",
          "name": "amount",
          "type": "uint256"
        },
        {
          "internalType": "uint256",
          "name": "timestamp",
          "type": "uint256"
        },
        {
          "internalType": "bool",
          "name": "released",
          "type": "bool"
        },
        {
          "internalType": "bool",
          "name": "completed",
          "type": "bool"
        },
        {
          "internalType": "uint256",
          "name": "validations",
          "type": "uint256"
        },
        {
          "internalType": "uint256",
          "name": "totalValidationWeight",
          "type": "uint256"
        },
        {
          "internalType": "uint256",
          "name": "validationStartTime",
          "type": "uint256"
        }
      ],
      "stateMutability": "view",
      "type": "function"
    },
    {
      "inputs": [
        {
          "internalType": "uint256",
          "name": "_projectId",
          "type": "uint256"
        }
      ],
      "name": "releaseFunds",
      "outputs": [],
      "stateMutability": "nonpayable",
      "type": "function"
    },
    {
      "inputs": [
        {
          "internalType": "address",
          "name": "_validator",
          "type": "address"
        }
      ],
      "name": "removeValidator",
      "outputs": [],
      "stateMutability": "nonpayable",
      "type": "function"
    },
    {
      "inputs": [],
      "name": "requiredValidationPercentage",
      "outputs": [
        {
          "internalType": "uint256",
          "name": "",
          "type": "uint256"
        }
      ],
      "stateMutability": "view",
      "type": "function"
    },
    {
      "inputs": [],
      "name": "requiredValidations",
      "outputs": [
        {
          "internalType": "uint256",
          "name": "",
          "type": "uint256"
        }
      ],
      "stateMutability": "view",
      "type": "function"
    },
    {
      "inputs": [
        {
          "internalType": "uint256",
          "name": "_window",
          "type": "uint256"
        },
        {
          "internalType": "uint256",
          "name": "_percentage",
          "type": "uint256"
        }
      ],
      "name": "setValidationParameters",
      "outputs": [],
      "stateMutability": "nonpayable",
      "type": "function"
    },
    {
      "inputs": [
        {
          "internalType": "address",
          "name": "_validator",
          "type": "address"
        },
        {
          "internalType": "uint256",
          "name": "_weight",
          "type": "uint256"
        }
      ],
      "name": "setValidatorWeight",
      "outputs": [],
      "stateMutability": "nonpayable",
      "type": "function"
    },
    {
      "inputs": [],
      "name": "totalFunds",
      "outputs": [
        {
          "internalType": "uint256",
          "name": "",
          "type": "uint256"
        }
      ],
      "stateMutability": "view",
      "type": "function"
    },
    {
      "inputs": [
        {
          "internalType": "uint256",
          "name": "_projectId",
          "type": "uint256"
        }
      ],
      "name": "validateProject",
      "outputs": [],
      "stateMutability": "nonpayable",
      "type": "function"
    },
    {
      "inputs": [],
      "name": "validationWindow",
      "outputs": [
        {
          "internalType": "uint256",
          "name": "",
          "type": "uint256"
        }
      ],
      "stateMutability": "view",
      "type": "function"
    },
    {
      "inputs": [
        {
          "internalType": "uint256",
          "name": "",
          "type": "uint256"
        }
      ],
      "name": "validatorList",
      "outputs": [
        {
          "internalType": "address",
          "name": "",
          "type": "address"
        }
      ],
      "stateMutability": "view",
      "type": "function"
    },
    {
      "inputs": [
        {
          "internalType": "address",
          "name": "",
          "type": "address"
        }
      ],
      "name": "validatorWeights",
      "outputs": [
        {
          "internalType": "uint256",
          "name": "",
          "type": "uint256"
        }
      ],
      "stateMutability": "view",
      "type": "function"
    },
    {
      "inputs": [
        {
          "internalType": "address",
          "name": "",
          "type": "address"
        }
      ],
      "name": "validators",
      "outputs": [
        {
          "internalType": "bool",
          "name": "isActive",
          "type": "bool"
        },
        {
          "internalType": "uint256",
          "name": "validationsCount",
          "type": "uint256"
        }
      ],
      "stateMutability": "view",
      "type": "function"
    }
  ],
  "bytecode": "0x6080604052600260065562015180600755604660085534801561002157600080fd5b50336000806101000a81548173ffffffffffffffffffffffffffffffffffffffff021916908373ffffffffffffffffffffffffffffffffffffffff1602179055506100713361007660201b60201c565b6101a4565b60405180604001604052806001151581526020016000815250600460008373ffffffffffffffffffffffffffffffffffffffff1673ffffffffffffffffffffffffffffffffffffffff16815260200190815260200160002060008201518160000160006101000a81548160ff021916908315150217905550602082015181600101559050506005819080600181540180825580915050600190039060005260206000200160009091909190916101000a81548173ffffffffffffffffffffffffffffffffffffffff021916908373ffffffffffffffffffffffffffffffffffffffff1602179055508073ffffffffffffffffffffffffffffffffffffffff167fe366c1c0452ed8eec96861e9e54141ebff23c9ec89fe27b996b45f5ec388498760405160405180910390a250565b612ecd806101b36000396000f3fe6080604052600436106101405760003560e01c80634ed66e5a116100b65780639833adc31161006f5780639833adc314610465578063b048e05614610481578063b7ab4db5146104be578063e98ee06a146104e9578063f0f3f2c814610526578063fa52c7d81461056a57610140565b80634ed66e5a1461035757806357021469146103805780636b2e1cd0146103a95780638d1b5c66146103e65780638da5cb5b1461040f578063968ed6001461043a57610140565b806318cea1f41161010857806318cea1f41461025b5780632d395e4d146102865780633bcff3b0146102b157806340a141ff146102dc5780634d238c8e146103055780634d68282f1461032e57610140565b8063020b4296146101455780630d9dde67146101825780630de1e2b4146101bf578063107046bd146101ea57806312065fe014610230575b600080fd5b34801561015157600080fd5b5061016c60048036038101906101679190611d5f565b6105a8565b6040516101799190611da5565b60405180910390f35b34801561018e57600080fd5b506101a960048036038101906101a49190611dec565b6105c0565b6040516101b69190611e47565b60405180910390f35b3480156101cb57600080fd5b506101d4610628565b6040516101e19190611da5565b60405180910390f35b3480156101f657600080fd5b50610211600480360381019061020c9190611e62565b61062e565b6040516102279a99989796959493929190611f2e565b60405180910390f35b34801561023c57600080fd5b506102456107dc565b6040516102529190611da5565b60405180910390f35b34801561026757600080fd5b506102706107e4565b60405161027d9190611da5565b60405180910390f35b34801561029257600080fd5b5061029b6107ea565b6040516102a89190611da5565b60405180910390f35b3480156102bd57600080fd5b506102c66107f0565b6040516102d39190611da5565b60405180910390f35b3480156102e857600080fd5b5061030360048036038101906102fe9190611d5f565b6107fd565b005b34801561031157600080fd5b5061032c60048036038101906103279190611d5f565b6109bb565b005b34801561033a57600080fd5b5061035560048036038101906103509190611e62565b610ae5565b005b34801561036357600080fd5b5061037e60048036038101906103799190611fd8565b610df2565b005b34801561038c57600080fd5b506103a760048036038101906103a29190611e62565b610f57565b005b3480156103b557600080fd5b506103d060048036038101906103cb9190611dec565b611496565b6040516103dd9190611e47565b60405180910390f35b3480156103f257600080fd5b5061040d60048036038101906104089190612018565b6114c5565b005b34801561041b57600080fd5b506104246115b5565b6040516104319190612058565b60405180910390f35b34801561044657600080fd5b5061044f6115d9565b60405161045c9190611da5565b60405180910390f35b61047f600480360381019061047a91906121a8565b6115df565b005b34801561048d57600080fd5b506104a860048036038101906104a39190611e62565b61189c565b6040516104b59190612058565b60405180910390f35b3480156104ca57600080fd5b506104d36118db565b6040516104e091906122f1565b60405180910390f35b3480156104f557600080fd5b50610510600480360381019061050b9190611e62565b611969565b60405161051d9190611da5565b60405180910390f35b34801561053257600080fd5b5061054d60048036038101906105489190611e62565b611981565b604051610561989796959493929190612313565b60405180910390f35b34801561057657600080fd5b50610591600480360381019061058c9190611d5f565b611b8e565b60405161059f92919061239f565b60405180910390f35b60096020528060005260406000206000915090505481565b60006002600084815260200190815260200160002060008373ffffffffffffffffffffffffffffffffffffffff1673ffffffffffffffffffffffffffffffffffffffff16815260200190815260200160002060009054906101000a900460ff16905092915050565b60065481565b6003818154811061063e57600080fd5b9060005260206000209060090201600091509050806000018054610661906123f7565b80601f016020809104026020016040519081016040528092919081815260200182805461068d906123f7565b80156106da5780601f106106af576101008083540402835291602001916106da565b820191906000526020600020905b8154815290600101906020018083116106bd57829003601f168201915b5050505050908060010180546106ef906123f7565b80601f016020809104026020016040519081016040528092919081815260200182805461071b906123f7565b80156107685780601f1061073d57610100808354040283529160200191610768565b820191906000526020600020905b81548152906001019060200180831161074b57829003601f168201915b5050505050908060020160009054906101000a900473ffffffffffffffffffffffffffffffffffffffff16908060030154908060040154908060050160009054906101000a900460ff16908060050160019054906101000a900460ff1690806006015490806007015490806008015490508a565b600047905090565b60085481565b60075481565b6000600380549050905090565b60008054906101000a900473ffffffffffffffffffffffffffffffffffffffff1673ffffffffffffffffffffffffffffffffffffffff163373ffffffffffffffffffffffffffffffffffffffff161461088b576040517f08c379a00000000000000000000000000000000000000000000000000000000081526004016108829061249a565b60405180910390fd5b600460008273ffffffffffffffffffffffffffffffffffffffff1673ffffffffffffffffffffffffffffffffffffffff16815260200190815260200160002060000160009054906101000a900460ff1661091a576040517f08c379a000000000000000000000000000000000000000000000000000000000815260040161091190612506565b60405180910390fd5b6000600460008373ffffffffffffffffffffffffffffffffffffffff1673ffffffffffffffffffffffffffffffffffffffff16815260200190815260200160002060000160006101000a81548160ff0219169083151502179055508073ffffffffffffffffffffffffffffffffffffffff167fe1434e25d6611e0db941968fdc97811c982ac1602e951637d206f5fdda9dd8f160405160405180910390a250565b60008054906101000a900473ffffffffffffffffffffffffffffffffffffffff1673ffffffffffffffffffffffffffffffffffffffff163373ffffffffffffffffffffffffffffffffffffffff1614610a49576040517f08c379a0000000000000000000000000000000000000000000000000000000008152600401610a409061249a565b60405180910390fd5b600460008273ffffffffffffffffffffffffffffffffffffffff1673ffffffffffffffffffffffffffffffffffffffff16815260200190815260200160002060000160009054906101000a900460ff1615610ad9576040517f08c379a0000000000000000000000000000000000000000000000000000000008152600401610ad090612572565b60405180910390fd5b610ae281611bbf565b50565b60008054906101000a900473ffffffffffffffffffffffffffffffffffffffff1673ffffffffffffffffffffffffffffffffffffffff163373ffffffffffffffffffffffffffffffffffffffff1614610b73576040517f08c379a0000000000000000000000000000000000000000000000000000000008152600401610b6a9061249a565b60405180910390fd5b6003805490508110610bba576040517f08c379a0000000000000000000000000000000000000000000000000000000008152600401610bb1906125de565b60405180910390fd5b600060038281548110610bd057610bcf6125fe565b5b906000526020600020906009020190508060050160019054906101000a900460ff16610c31576040517f08c379a0000000000000000000000000000000000000000000000000000000008152600401610c2890612679565b60405180910390fd5b8060050160009054906101000a900460ff1615610c83576040517f08c379a0000000000000000000000000000000000000000000000000000000008152600401610c7a906126e5565b60405180910390fd5b60018160050160006101000a81548160ff02191690831515021790555060008160020160009054906101000a900473ffffffffffffffffffffffffffffffffffffffff1673ffffffffffffffffffffffffffffffffffffffff168260030154604051610cee90612736565b60006040518083038185875af1925050503d8060008114610d2b576040519150601f19603f3d011682016040523d82523d6000602084013e610d30565b606091505b5050905080610d74576040517f08c379a0000000000000000000000000000000000000000000000000000000008152600401610d6b90612797565b60405180910390fd5b8160020160009054906101000a900473ffffffffffffffffffffffffffffffffffffffff1673ffffffffffffffffffffffffffffffffffffffff16837f93e901cc5aea20ea9655887d9290a3215a5b3999c024812f4e4b749f7534349c846003015442604051610de59291906127b7565b60405180910390a3505050565b60008054906101000a900473ffffffffffffffffffffffffffffffffffffffff1673ffffffffffffffffffffffffffffffffffffffff163373ffffffffffffffffffffffffffffffffffffffff1614610e80576040517f08c379a0000000000000000000000000000000000000000000000000000000008152600401610e779061249a565b60405180910390fd5b600460008373ffffffffffffffffffffffffffffffffffffffff1673ffffffffffffffffffffffffffffffffffffffff16815260200190815260200160002060000160009054906101000a900460ff16610f0f576040517f08c379a0000000000000000000000000000000000000000000000000000000008152600401610f0690612506565b60405180910390fd5b80600960008473ffffffffffffffffffffffffffffffffffffffff1673ffffffffffffffffffffffffffffffffffffffff168152602001908152602001600020819055505050565b600460003373ffffffffffffffffffffffffffffffffffffffff1673ffffffffffffffffffffffffffffffffffffffff16815260200190815260200160002060000160009054906101000a900460ff16610fe6576040517f08c379a0000000000000000000000000000000000000000000000000000000008152600401610fdd90612852565b60405180910390fd5b600380549050811061102d576040517f08c379a0000000000000000000000000000000000000000000000000000000008152600401611024906125de565b60405180910390fd5b600060038281548110611043576110426125fe565b5b90600052602060002090600902019050600754816008015461106591906128a1565b4211156110a7576040517f08c379a000000000000000000000000000000000000000000000000000000000815260040161109e90612921565b60405180910390fd5b6002600083815260200190815260200160002060003373ffffffffffffffffffffffffffffffffffffffff1673ffffffffffffffffffffffffffffffffffffffff16815260200190815260200160002060009054906101000a900460ff1615611145576040517f08c379a000000000000000000000000000000000000000000000000000000000815260040161113c9061298d565b60405180910390fd5b600080600960003373ffffffffffffffffffffffffffffffffffffffff1673ffffffffffffffffffffffffffffffffffffffff16815260200190815260200160002054116111945760016111d5565b600960003373ffffffffffffffffffffffffffffffffffffffff1673ffffffffffffffffffffffffffffffffffffffff168152602001908152602001600020545b905060016002600085815260200190815260200160002060003373ffffffffffffffffffffffffffffffffffffffff1673ffffffffffffffffffffffffffffffffffffffff16815260200190815260200160002060006101000a81548160ff021916908315150217905550816006016000815480929190611255906129ad565b91905055508082600701600082825461126e91906128a1565b92505081905550600460003373ffffffffffffffffffffffffffffffffffffffff1673ffffffffffffffffffffffffffffffffffffffff16815260200190815260200160002060010160008154809291906112c8906129ad565b91905055503373ffffffffffffffffffffffffffffffffffffffff16837f84ffc84db0a14dc30a09c96c2dc65081ab5a1f28b1ec2543ec701b04ad161a9d60405160405180910390a36000805b600580549050811015611447576000600960006005848154811061133c5761133b6125fe565b5b9060005260206000200160009054906101000a900473ffffffffffffffffffffffffffffffffffffffff1673ffffffffffffffffffffffffffffffffffffffff1673ffffffffffffffffffffffffffffffffffffffff16815260200190815260200160002054116113ae57600161142d565b60096000600583815481106113c6576113c56125fe565b5b9060005260206000200160009054906101000a900473ffffffffffffffffffffffffffffffffffffffff1673ffffffffffffffffffffffffffffffffffffffff1673ffffffffffffffffffffffffffffffffffffffff168152602001908152602001600020545b8261143891906128a1565b91508080600101915050611315565b506000816064856007015461145c91906129f5565b6114669190612a66565b9050600854811061148f5760018460050160016101000a81548160ff0219169083151502179055505b5050505050565b60026020528160005260406000206020528060005260406000206000915091509054906101000a900460ff1681565b60008054906101000a900473ffffffffffffffffffffffffffffffffffffffff1673ffffffffffffffffffffffffffffffffffffffff163373ffffffffffffffffffffffffffffffffffffffff1614611553576040517f08c379a000000000000000000000000000000000000000000000000000000000815260040161154a9061249a565b60405180910390fd5b600081118015611564575060648111155b6115a3576040517f08c379a000000000000000000000000000000000000000000000000000000000815260040161159a90612ae3565b60405180910390fd5b81600781905550806008819055505050565b60008054906101000a900473ffffffffffffffffffffffffffffffffffffffff1681565b60015481565b60003411611622576040517f08c379a000000000000000000000000000000000000000000000000000000000815260040161161990612b4f565b60405180910390fd5b600073ffffffffffffffffffffffffffffffffffffffff168173ffffffffffffffffffffffffffffffffffffffff1603611691576040517f08c379a000000000000000000000000000000000000000000000000000000000815260040161168890612bbb565b60405180910390fd5b6000600380549050905060036040518061014001604052808681526020018581526020018473ffffffffffffffffffffffffffffffffffffffff1681526020013481526020014281526020016000151581526020016000151581526020016000815260200160008152602001428152509080600181540180825580915050600190039060005260206000209060090201600090919091909150600082015181600001908161173f9190612d87565b5060208201518160010190816117559190612d87565b5060408201518160020160006101000a81548173ffffffffffffffffffffffffffffffffffffffff021916908373ffffffffffffffffffffffffffffffffffffffff160217905550606082015181600301556080820151816004015560a08201518160050160006101000a81548160ff02191690831515021790555060c08201518160050160016101000a81548160ff02191690831515021790555060e08201518160060155610100820151816007015561012082015181600801555050346001600082825461182591906128a1565b925050819055508173ffffffffffffffffffffffffffffffffffffffff163373ffffffffffffffffffffffffffffffffffffffff16827f3698037f9fc0fb342060e066d7ad367b516ba23a610f306d31090c17dc9e016f34884260405161188e93929190612e59565b60405180910390a450505050565b600581815481106118ac57600080fd5b906000526020600020016000915054906101000a900473ffffffffffffffffffffffffffffffffffffffff1681565b6060600580548060200260200160405190810160405280929190818152602001828054801561195f57602002820191906000526020600020905b8160009054906101000a900473ffffffffffffffffffffffffffffffffffffffff1673ffffffffffffffffffffffffffffffffffffffff1681526020019060010190808311611915575b5050505050905090565b600a6020528060005260406000206000915090505481565b60608060008060008060008060038054905089106119d4576040517f08c379a00000000000000000000000000000000000000000000000000000000081526004016119cb906125de565b60405180910390fd5b600060038a815481106119ea576119e96125fe565b5b9060005260206000209060090201905080600001816001018260020160009054906101000a900473ffffffffffffffffffffffffffffffffffffffff16836003015484600401548560050160009054906101000a900460ff168660050160019054906101000a900460ff168760060154878054611a66906123f7565b80601f0160208091040260200160405190810160405280929190818152602001828054611a92906123f7565b8015611adf5780601f10611ab457610100808354040283529160200191611adf565b820191906000526020600020905b815481529060010190602001808311611ac257829003601f168201915b50505050509750868054611af2906123f7565b80601f0160208091040260200160405190810160405280929190818152602001828054611b1e906123f7565b8015611b6b5780601f10611b4057610100808354040283529160200191611b6b565b820191906000526020600020905b815481529060010190602001808311611b4e57829003601f168201915b505050505096509850985098509850985098509850985050919395975091939597565b60046020528060005260406000206000915090508060000160009054906101000a900460ff16908060010154905082565b60405180604001604052806001151581526020016000815250600460008373ffffffffffffffffffffffffffffffffffffffff1673ffffffffffffffffffffffffffffffffffffffff16815260200190815260200160002060008201518160000160006101000a81548160ff021916908315150217905550602082015181600101559050506005819080600181540180825580915050600190039060005260206000200160009091909190916101000a81548173ffffffffffffffffffffffffffffffffffffffff021916908373ffffffffffffffffffffffffffffffffffffffff1602179055508073ffffffffffffffffffffffffffffffffffffffff167fe366c1c0452ed8eec96861e9e54141ebff23c9ec89fe27b996b45f5ec388498760405160405180910390a250565b6000604051905090565b600080fd5b600080fd5b600073ffffffffffffffffffffffffffffffffffffffff82169050919050565b6000611d2c82611d01565b9050919050565b611d3c81611d21565b8114611d4757600080fd5b50565b600081359050611d5981611d33565b92915050565b600060208284031215611d7557611d74611cf7565b5b6000611d8384828501611d4a565b91505092915050565b6000819050919050565b611d9f81611d8c565b82525050565b6000602082019050611dba6000830184611d96565b92915050565b611dc981611d8c565b8114611dd457600080fd5b50565b600081359050611de681611dc0565b92915050565b60008060408385031215611e0357611e02611cf7565b5b6000611e1185828601611dd7565b9250506020611e2285828601611d4a565b9150509250929050565b60008115159050919050565b611e4181611e2c565b82525050565b6000602082019050611e5c6000830184611e38565b92915050565b600060208284031215611e7857611e77611cf7565b5b6000611e8684828501611dd7565b91505092915050565b600081519050919050565b600082825260208201905092915050565b60005b83811015611ec9578082015181840152602081019050611eae565b60008484015250505050565b6000601f19601f8301169050919050565b6000611ef182611e8f565b611efb8185611e9a565b9350611f0b818560208601611eab565b611f1481611ed5565b840191505092915050565b611f2881611d21565b82525050565b6000610140820190508181036000830152611f49818d611ee6565b90508181036020830152611f5d818c611ee6565b9050611f6c604083018b611f1f565b611f79606083018a611d96565b611f866080830189611d96565b611f9360a0830188611e38565b611fa060c0830187611e38565b611fad60e0830186611d96565b611fbb610100830185611d96565b611fc9610120830184611d96565b9b9a5050505050505050505050565b60008060408385031215611fef57611fee611cf7565b5b6000611ffd85828601611d4a565b925050602061200e85828601611dd7565b9150509250929050565b6000806040838503121561202f5761202e611cf7565b5b600061203d85828601611dd7565b925050602061204e85828601611dd7565b9150509250929050565b600060208201905061206d6000830184611f1f565b92915050565b600080fd5b600080fd5b7f4e487b7100000000000000000000000000000000000000000000000000000000600052604160045260246000fd5b6120b582611ed5565b810181811067ffffffffffffffff821117156120d4576120d361207d565b5b80604052505050565b60006120e7611ced565b90506120f382826120ac565b919050565b600067ffffffffffffffff8211156121135761211261207d565b5b61211c82611ed5565b9050602081019050919050565b82818337600083830152505050565b600061214b612146846120f8565b6120dd565b90508281526020810184848401111561216757612166612078565b5b612172848285612129565b509392505050565b600082601f83011261218f5761218e612073565b5b813561219f848260208601612138565b91505092915050565b6000806000606084860312156121c1576121c0611cf7565b5b600084013567ffffffffffffffff8111156121df576121de611cfc565b5b6121eb8682870161217a565b935050602084013567ffffffffffffffff81111561220c5761220b611cfc565b5b6122188682870161217a565b925050604061222986828701611d4a565b9150509250925092565b600081519050919050565b600082825260208201905092915050565b6000819050602082019050919050565b61226881611d21565b82525050565b600061227a838361225f565b60208301905092915050565b6000602082019050919050565b600061229e82612233565b6122a8818561223e565b93506122b38361224f565b8060005b838110156122e45781516122cb888261226e565b97506122d683612286565b9250506001810190506122b7565b5085935050505092915050565b6000602082019050818103600083015261230b8184612293565b905092915050565b600061010082019050818103600083015261232e818b611ee6565b90508181036020830152612342818a611ee6565b90506123516040830189611f1f565b61235e6060830188611d96565b61236b6080830187611d96565b61237860a0830186611e38565b61238560c0830185611e38565b61239260e0830184611d96565b9998505050505050505050565b60006040820190506123b46000830185611e38565b6123c16020830184611d96565b9392505050565b7f4e487b7100000000000000000000000000000000000000000000000000000000600052602260045260246000fd5b6000600282049050600182168061240f57607f821691505b602082108103612422576124216123c8565b5b50919050565b7f4f6e6c79206f776e65722063616e2063616c6c20746869732066756e6374696f60008201527f6e00000000000000000000000000000000000000000000000000000000000000602082015250565b6000612484602183611e9a565b915061248f82612428565b604082019050919050565b600060208201905081810360008301526124b381612477565b9050919050565b7f4e6f7420612076616c696461746f720000000000000000000000000000000000600082015250565b60006124f0600f83611e9a565b91506124fb826124ba565b602082019050919050565b6000602082019050818103600083015261251f816124e3565b9050919050565b7f416c726561647920612076616c696461746f7200000000000000000000000000600082015250565b600061255c601383611e9a565b915061256782612526565b602082019050919050565b6000602082019050818103600083015261258b8161254f565b9050919050565b7f50726f6a65637420646f6573206e6f7420657869737400000000000000000000600082015250565b60006125c8601683611e9a565b91506125d382612592565b602082019050919050565b600060208201905081810360008301526125f7816125bb565b9050919050565b7f4e487b7100000000000000000000000000000000000000000000000000000000600052603260045260246000fd5b7f50726f6a656374206e6f7420636f6d706c657465640000000000000000000000600082015250565b6000612663601583611e9a565b915061266e8261262d565b602082019050919050565b6000602082019050818103600083015261269281612656565b9050919050565b7f46756e647320616c72656164792072656c656173656400000000000000000000600082015250565b60006126cf601683611e9a565b91506126da82612699565b602082019050919050565b600060208201905081810360008301526126fe816126c2565b9050919050565b600081905092915050565b50565b6000612720600083612705565b915061272b82612710565b600082019050919050565b600061274182612713565b9150819050919050565b7f5472616e73666572206661696c65640000000000000000000000000000000000600082015250565b6000612781600f83611e9a565b915061278c8261274b565b602082019050919050565b600060208201905081810360008301526127b081612774565b9050919050565b60006040820190506127cc6000830185611d96565b6127d96020830184611d96565b9392505050565b7f4f6e6c792076616c696461746f72732063616e2063616c6c207468697320667560008201527f6e6374696f6e0000000000000000000000000000000000000000000000000000602082015250565b600061283c602683611e9a565b9150612847826127e0565b604082019050919050565b6000602082019050818103600083015261286b8161282f565b9050919050565b7f4e487b7100000000000000000000000000000000000000000000000000000000600052601160045260246000fd5b60006128ac82611d8c565b91506128b783611d8c565b92508282019050808211156128cf576128ce612872565b5b92915050565b7f56616c69646174696f6e2077696e646f7720636c6f7365640000000000000000600082015250565b600061290b601883611e9a565b9150612916826128d5565b602082019050919050565b6000602082019050818103600083015261293a816128fe565b9050919050565b7f416c72656164792076616c696461746564000000000000000000000000000000600082015250565b6000612977601183611e9a565b915061298282612941565b602082019050919050565b600060208201905081810360008301526129a68161296a565b9050919050565b60006129b882611d8c565b91507fffffffffffffffffffffffffffffffffffffffffffffffffffffffffffffffff82036129ea576129e9612872565b5b600182019050919050565b6000612a0082611d8c565b9150612a0b83611d8c565b9250828202612a1981611d8c565b91508282048414831517612a3057612a2f612872565b5b5092915050565b7f4e487b7100000000000000000000000000000000000000000000000000000000600052601260045260246000fd5b6000612a7182611d8c565b9150612a7c83611d8c565b925082612a8c57612a8b612a37565b5b828204905092915050565b7f496e76616c69642070657263656e746167650000000000000000000000000000600082015250565b6000612acd601283611e9a565b9150612ad882612a97565b602082019050919050565b60006020820190508181036000830152612afc81612ac0565b9050919050565b7f4d7573742073656e642066756e647320746f20616c6c6f636174650000000000600082015250565b6000612b39601b83611e9a565b9150612b4482612b03565b602082019050919050565b60006020820190508181036000830152612b6881612b2c565b9050919050565b7f496e76616c696420726563697069656e74206164647265737300000000000000600082015250565b6000612ba5601983611e9a565b9150612bb082612b6f565b602082019050919050565b60006020820190508181036000830152612bd481612b98565b9050919050565b60008190508160005260206000209050919050565b60006020601f8301049050919050565b600082821b905092915050565b600060088302612c3d7fffffffffffffffffffffffffffffffffffffffffffffffffffffffffffffffff82612c00565b612c478683612c00565b95508019841693508086168417925050509392505050565b6000819050919050565b6000612c84612c7f612c7a84611d8c565b612c5f565b611d8c565b9050919050565b6000819050919050565b612c9e83612c69565b612cb2612caa82612c8b565b848454612c0d565b825550505050565b600090565b612cc7612cba565b612cd2818484612c95565b505050565b5b81811015612cf657612ceb600082612cbf565b600181019050612cd8565b5050565b601f821115612d3b57612d0c81612bdb565b612d1584612bf0565b81016020851015612d24578190505b612d38612d3085612bf0565b830182612cd7565b50505b505050565b600082821c905092915050565b6000612d5e60001984600802612d40565b1980831691505092915050565b6000612d778383612d4d565b9150826002028217905092915050565b612d9082611e8f565b67ffffffffffffffff811115612da957612da861207d565b5b612db382546123f7565b612dbe828285612cfa565b600060209050601f831160018114612df15760008415612ddf578287015190505b612de98582612d6b565b865550612e51565b601f198416612dff86612bdb565b60005b82811015612e2757848901518255600182019150602085019450602081019050612e02565b86831015612e445784890151612e40601f891682612d4d565b8355505b6001600288020188555050505b505050505050565b6000606082019050612e6e6000830186611d96565b8181036020830152612e808185611ee6565b9050612e8f6040830184611d96565b94935050505056fea26469706673582212206ebd2907096312f94151127bcad238b5d8ab98b9d6524440fd766cfba9064dd964736f6c634300081c0033",
  "linkReferences": {},
  "deployedLinkReferences": {}
}