{
  "_format": "hh-sol-artifact-1",
  "contractName": "FundAllocation",
  "sourceName": "contracts/Fundtracking.sol",
  "abi": [
    {
      "inputs": [],
      "stateMutability": "nonpayable",
      "type": "constructor"
    },
    {
      "anonymous": false,
      "inputs": [
        {
          "indexed": true,
          "internalType": "uint256",
          "name": "fundraiserId",
          "type": "uint256"
        },
        {
          "indexed": true,
          "internalType": "address",
          "name": "donor",
          "type": "address"
        },
        {
          "indexed": false,
          "internalType": "uint256",
          "name": "amount",
          "type": "uint256"
        }
      ],
      "name": "DonationReceived",
      "type": "event"
    },
    {
      "anonymous": false,
      "inputs": [
        {
          "indexed": true,
          "internalType": "uint256",
          "name": "fundraiserId",
          "type": "uint256"
        },
        {
          "indexed": true,
          "internalType": "address",
          "name": "creator",
          "type": "address"
        },
        {
          "indexed": false,
          "internalType": "string",
          "name": "name",
          "type": "string"
        },
        {
          "indexed": false,
          "internalType": "uint256",
          "name": "targetAmount",
          "type": "uint256"
        }
      ],
      "name": "FundraiserCreated",
      "type": "event"
    },
    {
      "anonymous": false,
      "inputs": [
        {
          "indexed": true,
          "internalType": "uint256",
          "name": "projectId",
          "type": "uint256"
        },
        {
          "indexed": false,
          "internalType": "uint256",
          "name": "milestoneId",
          "type": "uint256"
        },
        {
          "indexed": false,
          "internalType": "string",
          "name": "description",
          "type": "string"
        },
        {
          "indexed": false,
          "internalType": "uint256",
          "name": "amount",
          "type": "uint256"
        }
      ],
      "name": "MilestoneCreated",
      "type": "event"
    },
    {
      "anonymous": false,
      "inputs": [
        {
          "indexed": true,
          "internalType": "uint256",
          "name": "projectId",
          "type": "uint256"
        },
        {
          "indexed": true,
          "internalType": "uint256",
          "name": "milestoneId",
          "type": "uint256"
        },
        {
          "indexed": true,
          "internalType": "address",
          "name": "validator",
          "type": "address"
        }
      ],
      "name": "MilestoneValidated",
      "type": "event"
    },
    {
      "anonymous": false,
      "inputs": [
        {
          "indexed": true,
          "internalType": "uint256",
          "name": "projectId",
          "type": "uint256"
        },
        {
          "indexed": false,
          "internalType": "string",
          "name": "name",
          "type": "string"
        },
        {
          "indexed": false,
          "internalType": "address",
          "name": "recipient",
          "type": "address"
        }
      ],
      "name": "ProjectCreated",
      "type": "event"
    },
    {
      "anonymous": false,
      "inputs": [
        {
          "indexed": true,
          "internalType": "uint256",
          "name": "projectId",
          "type": "uint256"
        },
        {
          "indexed": true,
          "internalType": "address",
          "name": "validator",
          "type": "address"
        }
      ],
      "name": "ProjectValidated",
      "type": "event"
    },
    {
      "anonymous": false,
      "inputs": [
        {
          "indexed": true,
          "internalType": "uint256",
          "name": "proposalId",
          "type": "uint256"
        },
        {
          "indexed": true,
          "internalType": "address",
          "name": "creator",
          "type": "address"
        },
        {
          "indexed": false,
          "internalType": "string",
          "name": "description",
          "type": "string"
        }
      ],
      "name": "ProposalCreated",
      "type": "event"
    },
    {
      "anonymous": false,
      "inputs": [
        {
          "indexed": true,
          "internalType": "uint256",
          "name": "proposalId",
          "type": "uint256"
        }
      ],
      "name": "ProposalExecuted",
      "type": "event"
    },
    {
      "anonymous": false,
      "inputs": [
        {
          "indexed": true,
          "internalType": "uint256",
          "name": "proposalId",
          "type": "uint256"
        },
        {
          "indexed": true,
          "internalType": "address",
          "name": "voter",
          "type": "address"
        },
        {
          "indexed": false,
          "internalType": "bool",
          "name": "support",
          "type": "bool"
        }
      ],
      "name": "ProposalVoted",
      "type": "event"
    },
    {
      "anonymous": false,
      "inputs": [
        {
          "indexed": true,
          "internalType": "address",
          "name": "validator",
          "type": "address"
        }
      ],
      "name": "ValidatorAdded",
      "type": "event"
    },
    {
      "anonymous": false,
      "inputs": [
        {
          "indexed": true,
          "internalType": "address",
          "name": "validator",
          "type": "address"
        }
      ],
      "name": "ValidatorRemoved",
      "type": "event"
    },
    {
      "anonymous": false,
      "inputs": [
        {
          "indexed": true,
          "internalType": "uint256",
          "name": "requestId",
          "type": "uint256"
        },
        {
          "indexed": true,
          "internalType": "address",
          "name": "approver",
          "type": "address"
        }
      ],
      "name": "WithdrawalApproved",
      "type": "event"
    },
    {
      "anonymous": false,
      "inputs": [
        {
          "indexed": true,
          "internalType": "uint256",
          "name": "requestId",
          "type": "uint256"
        },
        {
          "indexed": true,
          "internalType": "address",
          "name": "recipient",
          "type": "address"
        },
        {
          "indexed": false,
          "internalType": "uint256",
          "name": "amount",
          "type": "uint256"
        }
      ],
      "name": "WithdrawalExecuted",
      "type": "event"
    },
    {
      "anonymous": false,
      "inputs": [
        {
          "indexed": true,
          "internalType": "uint256",
          "name": "requestId",
          "type": "uint256"
        },
        {
          "indexed": false,
          "internalType": "uint256",
          "name": "projectId",
          "type": "uint256"
        },
        {
          "indexed": false,
          "internalType": "uint256",
          "name": "milestoneId",
          "type": "uint256"
        },
        {
          "indexed": false,
          "internalType": "uint256",
          "name": "amount",
          "type": "uint256"
        }
      ],
      "name": "WithdrawalRequested",
      "type": "event"
    },
    {
      "inputs": [
        {
          "internalType": "uint256",
          "name": "_projectId",
          "type": "uint256"
        },
        {
          "internalType": "address",
          "name": "_approver",
          "type": "address"
        }
      ],
      "name": "addProjectApprover",
      "outputs": [],
      "stateMutability": "nonpayable",
      "type": "function"
    },
    {
      "inputs": [
        {
          "internalType": "address",
          "name": "_validator",
          "type": "address"
        }
      ],
      "name": "addValidator",
      "outputs": [],
      "stateMutability": "nonpayable",
      "type": "function"
    },
    {
      "inputs": [
        {
          "internalType": "uint256",
          "name": "_requestId",
          "type": "uint256"
        }
      ],
      "name": "approveWithdrawal",
      "outputs": [],
      "stateMutability": "nonpayable",
      "type": "function"
    },
    {
      "inputs": [
        {
          "internalType": "string",
          "name": "_name",
          "type": "string"
        },
        {
          "internalType": "string",
          "name": "_description",
          "type": "string"
        },
        {
          "internalType": "uint256",
          "name": "_targetAmount",
          "type": "uint256"
        },
        {
          "internalType": "uint256",
          "name": "_durationInDays",
          "type": "uint256"
        }
      ],
      "name": "createFundraiser",
      "outputs": [
        {
          "internalType": "uint256",
          "name": "",
          "type": "uint256"
        }
      ],
      "stateMutability": "nonpayable",
      "type": "function"
    },
    {
      "inputs": [
        {
          "internalType": "uint256",
          "name": "_projectId",
          "type": "uint256"
        },
        {
          "internalType": "uint256",
          "name": "_milestoneId",
          "type": "uint256"
        },
        {
          "internalType": "string",
          "name": "_description",
          "type": "string"
        }
      ],
      "name": "createMilestoneProposal",
      "outputs": [],
      "stateMutability": "nonpayable",
      "type": "function"
    },
    {
      "inputs": [
        {
          "internalType": "string",
          "name": "_name",
          "type": "string"
        },
        {
          "internalType": "string",
          "name": "_description",
          "type": "string"
        },
        {
          "internalType": "address",
          "name": "_recipient",
          "type": "address"
        },
        {
          "internalType": "string[]",
          "name": "_milestoneDescriptions",
          "type": "string[]"
        },
        {
          "internalType": "uint256[]",
          "name": "_milestoneAmounts",
          "type": "uint256[]"
        }
      ],
      "name": "createProjectWithMilestones",
      "outputs": [],
      "stateMutability": "payable",
      "type": "function"
    },
    {
      "inputs": [
        {
          "internalType": "uint256",
          "name": "_fundraiserId",
          "type": "uint256"
        }
      ],
      "name": "donate",
      "outputs": [],
      "stateMutability": "payable",
      "type": "function"
    },
    {
      "inputs": [
        {
          "internalType": "uint256",
          "name": "",
          "type": "uint256"
        },
        {
          "internalType": "address",
          "name": "",
          "type": "address"
        }
      ],
      "name": "donations",
      "outputs": [
        {
          "internalType": "uint256",
          "name": "",
          "type": "uint256"
        }
      ],
      "stateMutability": "view",
      "type": "function"
    },
    {
      "inputs": [
        {
          "internalType": "uint256",
          "name": "_proposalId",
          "type": "uint256"
        }
      ],
      "name": "executeProposal",
      "outputs": [],
      "stateMutability": "nonpayable",
      "type": "function"
    },
    {
      "inputs": [
        {
          "internalType": "uint256",
          "name": "",
          "type": "uint256"
        }
      ],
      "name": "fundraisers",
      "outputs": [
        {
          "internalType": "string",
          "name": "name",
          "type": "string"
        },
        {
          "internalType": "string",
          "name": "description",
          "type": "string"
        },
        {
          "internalType": "address",
          "name": "creator",
          "type": "address"
        },
        {
          "internalType": "uint256",
          "name": "targetAmount",
          "type": "uint256"
        },
        {
          "internalType": "uint256",
          "name": "currentAmount",
          "type": "uint256"
        },
        {
          "internalType": "uint256",
          "name": "deadline",
          "type": "uint256"
        },
        {
          "internalType": "bool",
          "name": "active",
          "type": "bool"
        }
      ],
      "stateMutability": "view",
      "type": "function"
    },
    {
      "inputs": [],
      "name": "getBalance",
      "outputs": [
        {
          "internalType": "uint256",
          "name": "",
          "type": "uint256"
        }
      ],
      "stateMutability": "view",
      "type": "function"
    },
    {
      "inputs": [],
      "name": "getFundraiserCount",
      "outputs": [
        {
          "internalType": "uint256",
          "name": "",
          "type": "uint256"
        }
      ],
      "stateMutability": "view",
      "type": "function"
    },
    {
      "inputs": [
        {
          "internalType": "uint256",
          "name": "_projectId",
          "type": "uint256"
        },
        {
          "internalType": "uint256",
          "name": "_milestoneId",
          "type": "uint256"
        }
      ],
      "name": "getMilestone",
      "outputs": [
        {
          "internalType": "string",
          "name": "description",
          "type": "string"
        },
        {
          "internalType": "uint256",
          "name": "amount",
          "type": "uint256"
        },
        {
          "internalType": "bool",
          "name": "validated",
          "type": "bool"
        },
        {
          "internalType": "bool",
          "name": "released",
          "type": "bool"
        },
        {
          "internalType": "uint256",
          "name": "votes",
          "type": "uint256"
        }
      ],
      "stateMutability": "view",
      "type": "function"
    },
    {
      "inputs": [
        {
          "internalType": "uint256",
          "name": "_projectId",
          "type": "uint256"
        }
      ],
      "name": "getMilestoneCount",
      "outputs": [
        {
          "internalType": "uint256",
          "name": "",
          "type": "uint256"
        }
      ],
      "stateMutability": "view",
      "type": "function"
    },
    {
      "inputs": [
        {
          "internalType": "uint256",
          "name": "_projectId",
          "type": "uint256"
        }
      ],
      "name": "getProjectApprovers",
      "outputs": [
        {
          "internalType": "address[]",
          "name": "",
          "type": "address[]"
        }
      ],
      "stateMutability": "view",
      "type": "function"
    },
    {
      "inputs": [],
      "name": "getProjectCount",
      "outputs": [
        {
          "internalType": "uint256",
          "name": "",
          "type": "uint256"
        }
      ],
      "stateMutability": "view",
      "type": "function"
    },
    {
      "inputs": [],
      "name": "getValidators",
      "outputs": [
        {
          "internalType": "address[]",
          "name": "",
          "type": "address[]"
        }
      ],
      "stateMutability": "view",
      "type": "function"
    },
    {
      "inputs": [
        {
          "internalType": "uint256",
          "name": "_requestId",
          "type": "uint256"
        }
      ],
      "name": "getWithdrawalApprovers",
      "outputs": [
        {
          "internalType": "address[]",
          "name": "",
          "type": "address[]"
        }
      ],
      "stateMutability": "view",
      "type": "function"
    },
    {
      "inputs": [],
      "name": "getWithdrawalRequestCount",
      "outputs": [
        {
          "internalType": "uint256",
          "name": "",
          "type": "uint256"
        }
      ],
      "stateMutability": "view",
      "type": "function"
    },
    {
      "inputs": [
        {
          "internalType": "uint256",
          "name": "",
          "type": "uint256"
        },
        {
          "internalType": "uint256",
          "name": "",
          "type": "uint256"
        },
        {
          "internalType": "address",
          "name": "",
          "type": "address"
        }
      ],
      "name": "milestoneValidations",
      "outputs": [
        {
          "internalType": "bool",
          "name": "",
          "type": "bool"
        }
      ],
      "stateMutability": "view",
      "type": "function"
    },
    {
      "inputs": [],
      "name": "owner",
      "outputs": [
        {
          "internalType": "address",
          "name": "",
          "type": "address"
        }
      ],
      "stateMutability": "view",
      "type": "function"
    },
    {
      "inputs": [
        {
          "internalType": "uint256",
          "name": "",
          "type": "uint256"
        },
        {
          "internalType": "address",
          "name": "",
          "type": "address"
        }
      ],
      "name": "projectValidations",
      "outputs": [
        {
          "internalType": "bool",
          "name": "",
          "type": "bool"
        }
      ],
      "stateMutability": "view",
      "type": "function"
    },
    {
      "inputs": [
        {
          "internalType": "uint256",
          "name": "",
          "type": "uint256"
        }
      ],
      "name": "projects",
      "outputs": [
        {
          "internalType": "string",
          "name": "name",
          "type": "string"
        },
        {
          "internalType": "string",
          "name": "description",
          "type": "string"
        },
        {
          "internalType": "address",
          "name": "recipient",
          "type": "address"
        },
        {
          "internalType": "uint256",
          "name": "totalAmount",
          "type": "uint256"
        },
        {
          "internalType": "uint256",
          "name": "timestamp",
          "type": "uint256"
        },
        {
          "internalType": "bool",
          "name": "completed",
          "type": "bool"
        },
        {
          "internalType": "uint256",
          "name": "requiredApprovals",
          "type": "uint256"
        },
        {
          "internalType": "uint256",
          "name": "validations",
          "type": "uint256"
        },
        {
          "internalType": "uint256",
          "name": "totalValidationWeight",
          "type": "uint256"
        },
        {
          "internalType": "uint256",
          "name": "validationStartTime",
          "type": "uint256"
        },
        {
          "internalType": "uint256",
          "name": "currentMilestone",
          "type": "uint256"
        }
      ],
      "stateMutability": "view",
      "type": "function"
    },
    {
      "inputs": [],
      "name": "proposalCount",
      "outputs": [
        {
          "internalType": "uint256",
          "name": "",
          "type": "uint256"
        }
      ],
      "stateMutability": "view",
      "type": "function"
    },
    {
      "inputs": [
        {
          "internalType": "uint256",
          "name": "",
          "type": "uint256"
        }
      ],
      "name": "proposals",
      "outputs": [
        {
          "internalType": "uint256",
          "name": "projectId",
          "type": "uint256"
        },
        {
          "internalType": "uint256",
          "name": "milestoneId",
          "type": "uint256"
        },
        {
          "internalType": "string",
          "name": "description",
          "type": "string"
        },
        {
          "internalType": "uint256",
          "name": "forVotes",
          "type": "uint256"
        },
        {
          "internalType": "uint256",
          "name": "againstVotes",
          "type": "uint256"
        },
        {
          "internalType": "uint256",
          "name": "startTime",
          "type": "uint256"
        },
        {
          "internalType": "uint256",
          "name": "endTime",
          "type": "uint256"
        },
        {
          "internalType": "bool",
          "name": "executed",
          "type": "bool"
        }
      ],
      "stateMutability": "view",
      "type": "function"
    },
    {
      "inputs": [],
      "name": "quorumPercentage",
      "outputs": [
        {
          "internalType": "uint256",
          "name": "",
          "type": "uint256"
        }
      ],
      "stateMutability": "view",
      "type": "function"
    },
    {
      "inputs": [
        {
          "internalType": "address",
          "name": "_validator",
          "type": "address"
        }
      ],
      "name": "removeValidator",
      "outputs": [],
      "stateMutability": "nonpayable",
      "type": "function"
    },
    {
      "inputs": [],
      "name": "requiredApprovals",
      "outputs": [
        {
          "internalType": "uint256",
          "name": "",
          "type": "uint256"
        }
      ],
      "stateMutability": "view",
      "type": "function"
    },
    {
      "inputs": [
        {
          "internalType": "uint256",
          "name": "_projectId",
          "type": "uint256"
        },
        {
          "internalType": "uint256",
          "name": "_requiredApprovals",
          "type": "uint256"
        }
      ],
      "name": "setProjectRequiredApprovals",
      "outputs": [],
      "stateMutability": "nonpayable",
      "type": "function"
    },
    {
      "inputs": [
        {
          "internalType": "address",
          "name": "_validator",
          "type": "address"
        },
        {
          "internalType": "uint256",
          "name": "_power",
          "type": "uint256"
        }
      ],
      "name": "setValidatorVotingPower",
      "outputs": [],
      "stateMutability": "nonpayable",
      "type": "function"
    },
    {
      "inputs": [],
      "name": "totalFunds",
      "outputs": [
        {
          "internalType": "uint256",
          "name": "",
          "type": "uint256"
        }
      ],
      "stateMutability": "view",
      "type": "function"
    },
    {
      "inputs": [
        {
          "internalType": "uint256",
          "name": "_projectId",
          "type": "uint256"
        }
      ],
      "name": "validateProject",
      "outputs": [],
      "stateMutability": "nonpayable",
      "type": "function"
    },
    {
      "inputs": [
        {
          "internalType": "uint256",
          "name": "",
          "type": "uint256"
        }
      ],
      "name": "validatorList",
      "outputs": [
        {
          "internalType": "address",
          "name": "",
          "type": "address"
        }
      ],
      "stateMutability": "view",
      "type": "function"
    },
    {
      "inputs": [
        {
          "internalType": "address",
          "name": "",
          "type": "address"
        }
      ],
      "name": "validators",
      "outputs": [
        {
          "internalType": "bool",
          "name": "isActive",
          "type": "bool"
        },
        {
          "internalType": "uint256",
          "name": "validationsCount",
          "type": "uint256"
        },
        {
          "internalType": "uint256",
          "name": "votingPower",
          "type": "uint256"
        }
      ],
      "stateMutability": "view",
      "type": "function"
    },
    {
      "inputs": [
        {
          "internalType": "uint256",
          "name": "_proposalId",
          "type": "uint256"
        },
        {
          "internalType": "bool",
          "name": "_support",
          "type": "bool"
        }
      ],
      "name": "vote",
      "outputs": [],
      "stateMutability": "nonpayable",
      "type": "function"
    },
    {
      "inputs": [],
      "name": "votingPeriod",
      "outputs": [
        {
          "internalType": "uint256",
          "name": "",
          "type": "uint256"
        }
      ],
      "stateMutability": "view",
      "type": "function"
    },
    {
      "inputs": [
        {
          "internalType": "uint256",
          "name": "",
          "type": "uint256"
        }
      ],
      "name": "withdrawalRequests",
      "outputs": [
        {
          "internalType": "uint256",
          "name": "projectId",
          "type": "uint256"
        },
        {
          "internalType": "uint256",
          "name": "milestoneId",
          "type": "uint256"
        },
        {
          "internalType": "uint256",
          "name": "amount",
          "type": "uint256"
        },
        {
          "internalType": "bool",
          "name": "executed",
          "type": "bool"
        },
        {
          "internalType": "uint256",
          "name": "timestamp",
          "type": "uint256"
        }
      ],
      "stateMutability": "view",
      "type": "function"
    }
  ],
  "bytecode": "0x60803461012957603360029081556203f480600355600455600080546001600160a01b0319908116331782559091606081016001600160401b038111828210176101155760405260018152600260208201848152604083019060018252338652600d602052604086209351151560ff8019865416911617845551600184015551910155600e5468010000000000000000811015610101576001810180600e558110156100ed57600e83526020832001903390825416179055604051907fe366c1c0452ed8eec96861e9e54141ebff23c9ec89fe27b996b45f5ec3884987339180a261305690816200012f8239f35b634e487b7160e01b83526032600452602483fd5b634e487b7160e01b83526041600452602483fd5b634e487b7160e01b84526041600452602484fd5b600080fdfe6080604052600436101561001257600080fd5b60e0600035811c908163013cf08b146122c457816302a251a3146122a657816304a8c7501461223f5781630d61b519146121c6578163107046bd146120e857816312065fe0146120cc5781633bcff3b0146120ae57816340a141ff146120235781634d238c8e14611eed5781634e429c8d14611e205781634fa76ec914611e02578163543f9a7914611c0f57816357021469146118d85781635c1f09281461187d5781635f7fa1f41461185f5781636b2e1cd01461181257816377005114146114ca578163833ae1c3146114315781638da5cb5b146114085781638ed9895c1461136d578163937b258114611309578163968ed600146112eb57816399c1aadc146112cd5781639eceddea14610f54578163b048e05614610f12578163b7ab4db514610e90578163c2010e5014610e5d578163c9d27afe14610cec578163da35c66414610cce578163ddfeeaea14610711578163ee1554a3146106c9578163f0dfd3d314610698578163f14faf6f14610322578163f322deb8146102da578163f38f72fb1461022f57508063fa52c7d8146101d95763fe62b7da146101b657600080fd5b346101d45760003660031901126101d4576020600554604051908152f35b600080fd5b346101d45760203660031901126101d4576001600160a01b036101fa6124ec565b16600052600d6020526060604060002060ff815416906002600182015491015490604051921515835260208301526040820152f35b346101d45760203660031901126101d4576004356005548110156101d45761025690612689565b509061026182612407565b9161026e60018201612407565b60018060a01b036002830154169160038101546004820154906102ba60ff6006600586015495015416946102ac60405199898b9a8b528a01906124ac565b9088820360208a01526124ac565b9460408701526060860152608085015260a0840152151560c08301520390f35b346101d45760203660031901126101d45761031e610312600661030b600435610306600754821061276c565b61252e565b50016129a4565b6040519182918261262d565b0390f35b6020806003193601126101d4576004359060055482101561065f5761034682612689565b5091600683019260ff8454161561062d57610366600582015442106129fe565b610371341515612a32565b6003600482016103823482546128ca565b81558360005260068552604060002033600052855260406000206103a73482546128ca565b9055604051348152847f0b5b4c52969ff7329ecf7ee536409fda87812b15a8622bc6e8cdeab3aee14a26873393a35491015411156103e157005b6103f49060ff1993848154169055612689565b50816007549384610403612a7d565b509361040f8186612f11565b600190610420828201838801612f11565b600281019360018060a01b0380865416600289019060018060a01b03198254161790556004830195865460038a01554260048a01556005890183815416905542600a8a01556000604051610473816123cb565b526006890180546000825580610612575b5060005260045460078a01556000600c8a01556104f68754604051906104a982612395565b6040516104b5816123b0565b600f81526e496e697469616c2072656c6561736560881b809c82015282528c82015260006040820152600b60609b60008d8401526000608084015201612aa0565b610502875486546128ca565b85555416906040519360408552600093805461051d8161235b565b9384604089015283821691826000146105e857505060011461059f575b50505092600080516020613001833981519152838060a09997948b99977f3d198c5d9c28f50bf234c9c1a9a84f7ed3a20d152833a06c844a8e897261abd29c600f9801520390a2549280604051956000875286015284015260808301526040820152a2005b60009081528a8120939450925b8284106105d257505050820186019060008051602061300183398151915283600f61053a565b80548685018b01528b9650928a019281016105ac565b16878c0152505050151560051b83018701915060008051602061300183398151915283600f61053a565b61062790826000528a600020908101906128f7565b8c610484565b60405162461bcd60e51b815260048101849052600a6024820152694e6f742061637469766560b01b6044820152606490fd5b6064906040519062461bcd60e51b82526004820152601260248201527124b73b30b634b210333ab7323930b4b9b2b960711b6044820152fd5b346101d45760203660031901126101d45761031e610312600361030b6004356106c4600a548210612966565b6125db565b346101d45760403660031901126101d4576106e2612502565b600435600052600660205260406000209060018060a01b03166000526020526020604060002054604051908152f35b60a03660031901126101d4576001600160401b036004358181116101d45761073d90369060040161257e565b602480358381116101d45761075690369060040161257e565b61075e612518565b91606435938585116101d457366023860112156101d457846004013561078381612672565b9561079160405197886123e6565b818752602091848389019160051b830101913683116101d457858101915b838310610ca85750505050608435948786116101d457366023870112156101d4578560040135956107df87612672565b966107ed60405198896123e6565b808852858489019160051b830101913683116101d45786859101915b838310610c98575050505061081f341515612a32565b6001600160a01b03168015610c60578651865103610c2b57865115610bf757600097885b87518a101561086b5761086360019161085c8c8b612a69565b51906128ca565b990198610843565b8888913403610bc15760075496610880612a7d565b50938751818111610bac5761089f81610899885461235b565b8861290e565b87601f8211600114610b475790806108bf92600091610b3c575b50612953565b85555b6001998a8601928151928311610b2857509082916108ed826108e78e9897965461235b565b8561290e565b8890601f8311600114610ab35761090f929160009183610aa8575b5050612953565b90555b6002840180546001600160a01b03191686179055346003850155426004850181905560058501805460ff19169055600a850155604051600090610954816123cb565b526006840180546000825580610a8d575b50600094919293945260045460078201556000600c820155600b60009101935b6109cb575b876000805160206130018339815191526109c28989898e6109ac3482546128ca565b90556040519384936040855260408501906124ac565b918301520390a2005b8151811015610a8857908882897f3d198c5d9c28f50bf234c9c1a9a84f7ed3a20d152833a06c844a8e897261abd2610a068498979686612a69565b51610a118488612a69565b5160405191610a1f83612395565b82528b82015260006040820152610a456060916000838201526000608082015289612aa0565b8a610a508588612a69565b51610a75610a5e878b612a69565b5191846040519586958a87528601528401906124ac565b9060408301520390a20190919293610985565b61098a565b610aa2908260005288600020908101906128f7565b8a610965565b015190508d80610908565b90601f19831691846000528a6000209260005b8c828210610b035750509084899594939210610aea575b505050811b019055610912565b015160001960f88460031b161c191690558c8080610add565b91929395969798998291958786015181550195019301908e9897969594939291610ac6565b634e487b7160e01b60009081526041600452fd5b90508a01518d6108b9565b601f1982169087600052896000209160005b8b8d838310610b97575050509083600194939210610b7e575b5050811b0185556108c2565b8b015160001960f88460031b161c191690558c80610b72565b84015185556001909401939283019201610b59565b82634e487b7160e01b60005260416004526000fd5b60405162461bcd60e51b815260048101869052600f818901526e082dadeeadce840dad2e6dac2e8c6d608b1b6044820152606490fd5b60405162461bcd60e51b815260048101839052600d818601526c4e6f206d696c6573746f6e657360981b6044820152606490fd5b60405162461bcd60e51b815260048101839052600e818601526d082e4e4c2f240dad2e6dac2e8c6d60931b6044820152606490fd5b60405162461bcd60e51b81526004810183905260118186015270125b9d985b1a59081c9958da5c1a595b9d607a1b6044820152606490fd5b8235815291810191859101610809565b82358b81116101d4578591610cc383928a369187010161257e565b8152019201916107af565b346101d45760003660031901126101d4576020600b54604051908152f35b346101d45760403660031901126101d4576024356004358115158083036101d45733600052602092600d8452610d2960ff604060002054166126e0565b82600052600c8452604060002060058101544210610e2a57610d5160068201544211156129fe565b600881013360005280865260ff60406000205416610df5579484927f0def80f9a3b4c7a4251442658ccf516bf33ea4acaf31638fc6da8ebdb0f64c7292610ddd973360005283526040600020600160ff19825416179055600d835260026040600020015491600014610ddf576003610dcc91019182546128ca565b90555b6040519384523393a3612bd3565b005b6004610dee91019182546128ca565b9055610dcf565b60405162461bcd60e51b815260048101879052600d60248201526c105b1c9958591e481d9bdd1959609a1b6044820152606490fd5b60405162461bcd60e51b815260048101869052600b60248201526a139bdd081cdd185c9d195960aa1b6044820152606490fd5b346101d45760203660031901126101d4576020600b610e85600435610306600754821061276c565b500154604051908152f35b346101d45760003660031901126101d457604051600e80548083526000918252602080840193927fbb7b4a454dc3493923482f07822329ed19e8244eff582cc204f8554c3620c3fd92915b828210610ef25761031e85610312818903826123e6565b83546001600160a01b031686529485019460019384019390910190610edb565b346101d45760203660031901126101d457600435600e548110156101d457610f3b6020916125fa565b905460405160039290921b1c6001600160a01b03168152f35b346101d4576020806003193601126101d457600435610f76600a548210612966565b610f7f816125db565b50610f9160ff6004830154161561271c565b610f9b815461252e565b5090600080600684018054915b828110611295575b505061125d575033600052600d8452610fd060ff604060002054166126e0565b60006003809201918254915b8281106111fe57505050600790610ff333826127e4565b33847f7ab1df95613019ba98da0113a7adf5073c9fa62d93b5f202502115266aadc06a600080a354910154111561102657005b61102f816125db565b509161103b835461252e565b5090600b82019161105060018601548461285f565b5060048601600281549261106760ff85161561271c565b0191825460ff8116156111c95760081c60ff166111915760019060ff191617905561010061ff00198254161790556002810160018060a01b039160008080806002878754169b019a8b54905af13d1561118c573d6110c481612563565b906110d260405192836123e6565b81526000863d92013e5b1561115557600c018054945460001981019590861161113f577fd6cddb3d69146e96ebc2c87b1b3dd0b20ee2d3b0eadf134e011afb434a3e56e695811061112d575b505054169354604051908152a3005b611136906128bb565b9055868061111e565b634e487b7160e01b600052601160045260246000fd5b60405162461bcd60e51b815260048101859052600f60248201526e151c985b9cd9995c8819985a5b1959608a1b6044820152606490fd5b6110dc565b60405162461bcd60e51b815260048101869052601060248201526f105b1c9958591e481c995b19585cd95960821b6044820152606490fd5b60405162461bcd60e51b815260048101879052600d60248201526c139bdd081d985b1a59185d1959609a1b6044820152606490fd5b6112088185612615565b905490831b1c6001600160a01b0316331461122557600101610fdc565b60405162461bcd60e51b815260048101889052601060248201526f105b1c9958591e48185c1c1c9bdd995960821b6044820152606490fd5b610fd05760405162461bcd60e51b815260048101859052600c60248201526b2737ba1030b8383937bb32b960a11b6044820152606490fd5b61129f8183612615565b905460039190911b1c6001600160a01b031633146112bf57600101610fa8565b505090506001908680610fb0565b346101d45760003660031901126101d4576020600454604051908152f35b346101d45760003660031901126101d4576020600154604051908152f35b346101d45760203660031901126101d457600435600a548110156101d45761133260a0916125db565b508054906001810154906002810154600560ff6004840154169201549260405194855260208501526040840152151560608301526080820152f35b346101d4576113e46113b36113ac600b611386366125c5565b9290611395600754821061276c565b610306836113a28361252e565b500154851061281f565b500161285f565b50600181015460028201549160ff6113cf600383015492612407565b9360405195869560a0875260a08701906124ac565b9360208601528181161515604086015260081c161515606084015260808301520390f35b346101d45760003660031901126101d4576000546040516001600160a01b039091168152602090f35b346101d457611472611442366125c5565b9190611451600754821061276c565b61030661145d8261252e565b50600201546001600160a01b031633146127aa565b50811515806114bc575b156114875760070155005b60405162461bcd60e51b815260206004820152600d60248201526c496e76616c69642076616c756560981b6044820152606490fd5b50600681015482111561147c565b346101d45760803660031901126101d4576004356001600160401b0381116101d4576114fa90369060040161257e565b6024356001600160401b0381116101d45761151990369060040161257e565b60055491906201518060643581810291811591830414171561113f5761153f90426128ca565b6040519485018581106001600160401b03821117611773576040528285526020850191825233604086015260443560608601526000608086015260a0850152600160c0850152600160401b83101561177357600183016005556115a183612689565b9190916117fc5784518051906001600160401b038211611773576115cf826115c9865461235b565b8661290e565b602090601f8311600114611794576115f1929160009183611789575050612953565b82555b519384516001600160401b038111611773576020956116238261161a600187015461235b565b6001870161290e565b8690601f83116001146116fc579261164e8360069460c0946116a498976000926116f1575050612953565b60018501555b60408101516002850180546001600160a01b0319166001600160a01b0392909216919091179055606081015160038501556080810151600485015560a0810151600585015501511515910161275b565b817f29ddd37de3bb953acd135fb5ec12c7a3a99484ebb4d586be9d04c5042a48c53b6116db604051936040855260408501906124ac565b92604435868201528033940390a3604051908152f35b015190508b80610908565b9060018501600052876000209160005b601f198516811061175c57508360c0936116a4979693600193600697601f19811610611743575b505050811b016001850155611654565b015160001960f88460031b161c191690558a8080611733565b91928960018192868501518155019401920161170c565b634e487b7160e01b600052604160045260246000fd5b015190508880610908565b90601f198316918560005260206000209260005b8181106117e457509084600195949392106117cb575b505050811b0182556115f4565b015160001960f88460031b161c191690558780806117be565b929360206001819287860151815501950193016117a8565b634e487b7160e01b600052600060045260246000fd5b346101d45760403660031901126101d45761182b612502565b600435600052600860205260406000209060018060a01b0316600052602052602060ff604060002054166040519015158152f35b346101d45760003660031901126101d4576020600a54604051908152f35b346101d45760603660031901126101d457611896612518565b6004356000526009602052604060002060243560005260205260406000209060018060a01b0316600052602052602060ff604060002054166040519015158152f35b346101d4576020806003193601126101d45760043533600052600d90600d835260ff9161190c60ff604060002054166126e0565b611919600754831061276c565b6119228261252e565b508260005260088552604060002033600052855261194860ff604060002054161561287b565b33600052600d8552600280604060002001548460005260088752604060002033600052875260406000209360019660ff199588878254161790556008850161199081546128bb565b90556119a1600986019384546128ca565b835533600052600d8952876040600020016119bc81546128bb565b905533877f84ffc84db0a14dc30a09c96c2dc65081ab5a1f28b1ec2543ec701b04ad161a9d600080a360009360009289600e54945b858110611ba357505050505050549060648202918083046064149015171561113f57611a1c916128d7565b6002541115611a2757005b600b918460058301918254161790550154611a3e57005b60405190611a4b826123b0565b601a82527956616c696461746520696e697469616c206d696c6573746f6e6560301b84830152600b5492611a7e846128bb565b600b556000848152600c86526040812092835581830155825160028301916001600160401b03821161177357611ab8826108e7855461235b565b8690601f8311600114611b2b575091611aee82611b1b9593600080516020612fe18339815191529795600091611b205750612953565b90555b4260058201556006611b05600354426128ca565b91015560405191829186835233968301906124ac565b0390a3005b90508501518a6108b9565b9190601f1982169084600052886000209160005b8a828210611b8f575050918391600080516020612fe1833981519152989694611b1b98969410611b76575b5050811b019055611af1565b86015160001960f88460031b161c191690558980611b6a565b898401518555938601939283019201611b3f565b8c611bad826125fa565b60018060a01b03809254600392831b1c166000528583528760406000205416611bdc575b505050018a906119f1565b918591849b93611bee611c06966125fa565b9054911b1c16600052528460406000200154906128ca565b968c8e80611bd1565b346101d45760603660031901126101d4576024356001600160401b036004356044358281116101d457611c4690369060040161257e565b9033600052602093600d8552611c6360ff604060002054166126e0565b611c70600754831061276c565b611c798261252e565b5060ff60058201541615611dcd5781600c600b830192611c9b8454841061281f565b015403611d9a5760ff6002611cb384611cbd9461285f565b500154161561287b565b600b5493611cca856128bb565b600b5584600052600c8652604060002092835560019160018401556002830191845191821161177357611d01826108e7855461235b565b8690601f8311600114611d37575091611aee82611b1b9593600080516020612fe18339815191529795600091611b205750612953565b90601f1983168460005288600020926000905b8a838310611d825750505092600080516020612fe183398151915296949260019282611b1b989610611b76575050811b019055611af1565b89850151865594810194938401939190910190611d4a565b60405162461bcd60e51b815260048101879052600b60248201526a139bdd0818dd5c9c995b9d60aa1b6044820152606490fd5b60405162461bcd60e51b815260048101879052600d60248201526c139bdd0818dbdb5c1b195d1959609a1b6044820152606490fd5b346101d45760003660031901126101d4576020600254604051908152f35b346101d45760403660031901126101d4576002600435611e74611e41612502565b91611e4f600754821061276c565b610306611e5b8261252e565b50909401546001600160a01b03949033908616146127aa565b50600601805490928281169060005b838110611e9457610ddd85876127e4565b8282611ea08389612615565b90549060031b1c1614611eb557600101611e83565b60405162461bcd60e51b815260206004820152601060248201526f20b63932b0b23c9030b8383937bb32b960811b6044820152606490fd5b346101d45760203660031901126101d457611f066124ec565b6000546001600160a01b03918291611f2190831633146126a8565b169081600052600d60205260ff60406000205416611fea57604051606081018181106001600160401b0382111761177357604052600181526002602082016000815260408301906001825285600052600d602052611f876040600020945115158561275b565b51600184015551910155600e54600160401b81101561177357806001611fb09201600e556125fa565b819291549060031b9184831b921b19161790557fe366c1c0452ed8eec96861e9e54141ebff23c9ec89fe27b996b45f5ec3884987600080a2005b60405162461bcd60e51b815260206004820152601160248201527020b63932b0b23c903b30b634b230ba37b960791b6044820152606490fd5b346101d45760203660031901126101d45761203c6124ec565b6000546001600160a01b03919061205690831633146126a8565b1680600052600d60205261207160ff604060002054166126e0565b80600052600d602052604060002060ff1981541690557fe1434e25d6611e0db941968fdc97811c982ac1602e951637d206f5fdda9dd8f1600080a2005b346101d45760003660031901126101d4576020600754604051908152f35b346101d45760003660031901126101d457602047604051908152f35b346101d45760203660031901126101d457600435906007548210156101d4576121136121839261252e565b509061211e82612407565b9161212b60018201612407565b9060018060a01b036002820154169260038201549060048301549060ff600585015416600785015490600886015493600987015495612191600c600a8a0154990154996040519d8e9d8e6101609081815201906124ac565b8d810360208f0152906124ac565b9960408c015260608b015260808a0152151560a089015260c08801528601526101008501526101208401526101408301520390f35b346101d45760203660031901126101d45760043580600052600c602052604060002090600682015442111561220e5761220960ff6007610ddd940154161561271c565b612bd3565b60405162461bcd60e51b8152602060048201526009602482015268139bdd08195b99195960ba1b6044820152606490fd5b346101d45760403660031901126101d4576122586124ec565b6000546001600160a01b03919061227290831633146126a8565b1680600052600d60205261228d60ff604060002054166126e0565b600052600d602052602435600260406000200155600080f35b346101d45760003660031901126101d4576020600354604051908152f35b346101d45760203660031901126101d457600435600052600c6020526040600020908154916001810154916122fb60028301612407565b600383015492600481015460058201549061233c60ff600760068601549501541694604051998a99610100918b5260208b01528060408b01528901906124ac565b956060880152608087015260a086015260c08501521515908301520390f35b90600182811c9216801561238b575b602083101461237557565b634e487b7160e01b600052602260045260246000fd5b91607f169161236a565b60a081019081106001600160401b0382111761177357604052565b604081019081106001600160401b0382111761177357604052565b602081019081106001600160401b0382111761177357604052565b90601f801991011681019081106001600160401b0382111761177357604052565b9060405191826000825461241a8161235b565b9081845260209460019160018116908160001461248a575060011461244b575b505050612449925003836123e6565b565b600090815285812095935091905b818310612472575050612449935082010138808061243a565b85548884018501529485019487945091830191612459565b9250505061244994925060ff191682840152151560051b82010138808061243a565b919082519283825260005b8481106124d8575050826000602080949584010152601f8019910116010190565b6020818301810151848301820152016124b7565b600435906001600160a01b03821682036101d457565b602435906001600160a01b03821682036101d457565b604435906001600160a01b03821682036101d457565b60075481101561254d576007600052600d602060002091020190600090565b634e487b7160e01b600052603260045260246000fd5b6001600160401b03811161177357601f01601f191660200190565b81601f820112156101d45780359061259582612563565b926125a360405194856123e6565b828452602083830101116101d457816000926020809301838601378301015290565b60409060031901126101d4576004359060243590565b600a5481101561254d57600a6000526006602060002091020190600090565b600e5481101561254d57600e60005260206000200190600090565b805482101561254d5760005260206000200190600090565b602090602060408183019282815285518094520193019160005b828110612655575050505090565b83516001600160a01b031685529381019392810192600101612647565b6001600160401b0381116117735760051b60200190565b60055481101561254d5760056000526007602060002091020190600090565b156126af57565b60405162461bcd60e51b81526020600482015260096024820152682737ba1037bbb732b960b91b6044820152606490fd5b156126e757565b60405162461bcd60e51b815260206004820152600d60248201526c2737ba103b30b634b230ba37b960991b6044820152606490fd5b1561272357565b60405162461bcd60e51b815260206004820152601060248201526f105b1c9958591e48195e1958dd5d195960821b6044820152606490fd5b9060ff801983541691151516179055565b1561277357565b60405162461bcd60e51b815260206004820152600f60248201526e125b9d985b1a59081c1c9bda9958dd608a1b6044820152606490fd5b156127b157565b60405162461bcd60e51b815260206004820152600b60248201526a2737ba1031b932b0ba37b960a91b6044820152606490fd5b8054600160401b8110156117735761280191600182018155612615565b60018060a09493941b038084549260031b9316831b921b1916179055565b1561282657565b60405162461bcd60e51b8152602060048201526011602482015270496e76616c6964206d696c6573746f6e6560781b6044820152606490fd5b805482101561254d5760005260206000209060021b0190600090565b1561288257565b60405162461bcd60e51b8152602060048201526011602482015270105b1c9958591e481d985b1a59185d1959607a1b6044820152606490fd5b600019811461113f5760010190565b9190820180921161113f57565b81156128e1570490565b634e487b7160e01b600052601260045260246000fd5b818110612902575050565b600081556001016128f7565b9190601f811161291d57505050565b612449926000526020600020906020601f840160051c83019310612949575b601f0160051c01906128f7565b909150819061293c565b8160011b916000199060031b1c19161790565b1561296d57565b60405162461bcd60e51b815260206004820152600f60248201526e125b9d985b1a59081c995c5d595cdd608a1b6044820152606490fd5b90604051918281549182825260209260208301916000526020600020936000905b8282106129db57505050612449925003836123e6565b85546001600160a01b0316845260019586019588955093810193909101906129c5565b15612a0557565b60405162461bcd60e51b8152602060048201526005602482015264115b99195960da1b6044820152606490fd5b15612a3957565b60405162461bcd60e51b81526020600482015260086024820152674e6f2076616c756560c01b6044820152606490fd5b805182101561254d5760209160051b010190565b600754600160401b81101561177357806001612a9c920160075561252e565b9091565b908154600160401b81101561177357612ac19060019360018201815561285f565b9290926117fc578151908151916001600160401b03831161177357612af083612aea875461235b565b8761290e565b602091601f8411600114612b6557508260809360039593612b1993600092612b5a575050612953565b84555b6020810151600185015560028401612b3a604083015115158261275b565b6060820151815461ff00191690151560081b61ff00161790550151910155565b015190503880610908565b9190601f1984168660005282600020936000905b828210612bba5750509260019285926080966003989610612ba2575b505050811b018455612b1c565b015160001983881b60f8161c19169055388080612b95565b9093946020828192888701518155019601940190612b79565b6000818152602090600c825260408082209360ff80600787015416612f095760038601549060048097015490612c0982846128ca565b600e548792835b828110612e9b57505050606481029080820460641490151715612e885790612c37916128d7565b60025411159182612e7e575b5050612c51575b5050505050565b808352600c8452818320936001612c68865461252e565b5095612c7c82820197600b8954910161285f565b50936002850160ff19908482825416179055600383015460038701558360078401918254161790557f712ae1383f79ac853f8d882153778e0260ef8f03b504e2866e0593e04d2b291f8780a254955492015493600a5496845190612cdf826123cb565b8282528551926001600160401b0360c0850181811186821017612e6b57885289855285850193878552888601928a8452606087019182528c608088019482865260a0890197428952600160401b80931015612e58578f806001612d459201600a556125db565b9a909a612e4657518a555160018a0155516002890155600388019251908151948511612e33578411612e205788908354858555808610612e06575b5001918152878120905b838110612deb57505050507f71f046e95865eab73f09af259963e482f10658cdbe3c086504c919ba7985acdf98969492612dd160609997959360059351151590850161275b565b519101558251948552840152820152a23880808080612c4a565b82516001600160a01b03168282015591880191600101612d8a565b848452828420612e1a9181019087016128f7565b38612d80565b634e487b7160e01b825260418652602482fd5b634e487b7160e01b835260418752602483fd5b634e487b7160e01b8552848952602485fd5b634e487b7160e01b845260418852602484fd5b634e487b7160e01b835260418452602483fd5b1190503880612c43565b634e487b7160e01b875260118952602487fd5b612ea4816125fa565b90546001600160a01b0360039290921b1c81168b52600d808d528a8c20549091908416612ed6575b5050600101612c10565b95612f01918397612ee86001956125fa565b90549060031b1c168d528d5260028b8d200154906128ca565b949038612ecc565b505050505050565b90808214612fdc57612f23815461235b565b906001600160401b03821161177357612f40826108e7855461235b565b600090601f8311600114612f7157612f62929160009183612f66575050612953565b9055565b015490503880610908565b815260208082208483528183209291601f1985169083905b828210612fc3575050908460019594939210612faa575b505050811b019055565b015460001960f88460031b161c19169055388080612fa0565b8495819295850154815560018091019601940190612f89565b505056fe7585f467599d0f008985f231af99293be388626ac16ca59505c2f8f88969cd63c0c54fed07481d0998e1446b2c13759606bf4f26b78306307413ac4c4309aa82a2646970667358221220a13d707c21f3d0957b9b2bcc972faf2fd9778f29b3ba6bb7a7c624bcece8004864736f6c63430008180033",
  "linkReferences": {},
  "deployedLinkReferences": {}
}